{
	"FundeMe.sol": {
		"FundMe": {
			"abi": [
				{
					"inputs": [],
					"stateMutability": "payable",
					"type": "constructor"
				},
				{
					"inputs": [],
					"name": "notOwner",
					"type": "error"
				},
				{
					"stateMutability": "payable",
					"type": "fallback"
				},
				{
					"inputs": [
						{
							"internalType": "address",
							"name": "funder",
							"type": "address"
						}
					],
					"name": "addresstoAmountFunded",
					"outputs": [
						{
							"internalType": "uint256",
							"name": "amountFunded",
							"type": "uint256"
						}
					],
					"stateMutability": "view",
					"type": "function"
				},
				{
					"inputs": [],
					"name": "fund",
					"outputs": [],
					"stateMutability": "payable",
					"type": "function"
				},
				{
					"inputs": [
						{
							"internalType": "uint256",
							"name": "",
							"type": "uint256"
						}
					],
					"name": "funders",
					"outputs": [
						{
							"internalType": "address",
							"name": "",
							"type": "address"
						}
					],
					"stateMutability": "view",
					"type": "function"
				},
				{
					"inputs": [],
					"name": "minUsd",
					"outputs": [
						{
							"internalType": "uint256",
							"name": "",
							"type": "uint256"
						}
					],
					"stateMutability": "view",
					"type": "function"
				},
				{
					"inputs": [],
					"name": "owner",
					"outputs": [
						{
							"internalType": "address",
							"name": "",
							"type": "address"
						}
					],
					"stateMutability": "view",
					"type": "function"
				},
				{
					"inputs": [],
					"name": "withdraw",
					"outputs": [],
					"stateMutability": "nonpayable",
					"type": "function"
				},
				{
					"stateMutability": "payable",
					"type": "receive"
				}
			],
			"devdoc": {
				"kind": "dev",
				"methods": {},
				"version": 1
			},
			"evm": {
				"assembly": "    /* \"FundeMe.sol\":131:1781  contract FundMe{... */\n  mstore(0x40, 0xa0)\n    /* \"FundeMe.sol\":429:439  msg.sender */\n  caller\n    /* \"FundeMe.sol\":421:439  owner = msg.sender */\n  0xffffffffffffffffffffffffffffffffffffffff\n  and\n  0x80\n  dup2\n  0xffffffffffffffffffffffffffffffffffffffff\n  and\n  dup2\n  mstore\n  pop\n  pop\n    /* \"FundeMe.sol\":131:1781  contract FundMe{... */\n  mload(0x80)\n  codecopy(0x00, dataOffset(sub_0), dataSize(sub_0))\n  0x00\n  assignImmutable(\"0x35bb2e240092263378f77ea1e9c278099a33b604c4c4e26d13ea227e8bb74470\")\n  return(0x00, dataSize(sub_0))\nstop\n\nsub_0: assembly {\n        /* \"FundeMe.sol\":131:1781  contract FundMe{... */\n      mstore(0x40, 0x80)\n      jumpi(tag_1, lt(calldatasize, 0x04))\n      shr(0xe0, calldataload(0x00))\n      dup1\n      0x3ccfd60b\n      eq\n      tag_3\n      jumpi\n      dup1\n      0x51b80e41\n      eq\n      tag_4\n      jumpi\n      dup1\n      0x8da5cb5b\n      eq\n      tag_5\n      jumpi\n      dup1\n      0xb60d4288\n      eq\n      tag_6\n      jumpi\n      dup1\n      0xdb9bae19\n      eq\n      tag_7\n      jumpi\n      dup1\n      0xdc0d3dff\n      eq\n      tag_8\n      jumpi\n      jump(tag_2)\n    tag_1:\n      jumpi(tag_2, calldatasize)\n        /* \"FundeMe.sol\":1711:1717  fund() */\n      tag_11\n        /* \"FundeMe.sol\":1711:1715  fund */\n      tag_12\n        /* \"FundeMe.sol\":1711:1717  fund() */\n      jump\t// in\n    tag_11:\n        /* \"FundeMe.sol\":131:1781  contract FundMe{... */\n      stop\n    tag_2:\n        /* \"FundeMe.sol\":1763:1769  fund() */\n      tag_15\n        /* \"FundeMe.sol\":1763:1767  fund */\n      tag_12\n        /* \"FundeMe.sol\":1763:1769  fund() */\n      jump\t// in\n    tag_15:\n        /* \"FundeMe.sol\":131:1781  contract FundMe{... */\n      stop\n        /* \"FundeMe.sol\":710:1469  function withdraw() public  onlyOwner{... */\n    tag_3:\n      callvalue\n      dup1\n      iszero\n      tag_16\n      jumpi\n      revert(0x00, 0x00)\n    tag_16:\n      pop\n      tag_17\n      tag_18\n      jump\t// in\n    tag_17:\n      stop\n        /* \"FundeMe.sol\":194:231  uint256 public constant minUsd = 5e18 */\n    tag_4:\n      callvalue\n      dup1\n      iszero\n      tag_19\n      jumpi\n      revert(0x00, 0x00)\n    tag_19:\n      pop\n      tag_20\n      tag_21\n      jump\t// in\n    tag_20:\n      mload(0x40)\n      tag_22\n      swap2\n      swap1\n      tag_23\n      jump\t// in\n    tag_22:\n      mload(0x40)\n      dup1\n      swap2\n      sub\n      swap1\n      return\n        /* \"FundeMe.sol\":355:385  address public immutable owner */\n    tag_5:\n      callvalue\n      dup1\n      iszero\n      tag_24\n      jumpi\n      revert(0x00, 0x00)\n    tag_24:\n      pop\n      tag_25\n      tag_26\n      jump\t// in\n    tag_25:\n      mload(0x40)\n      tag_27\n      swap2\n      swap1\n      tag_28\n      jump\t// in\n    tag_27:\n      mload(0x40)\n      dup1\n      swap2\n      sub\n      swap1\n      return\n        /* \"FundeMe.sol\":453:703  function fund() public payable{... */\n    tag_6:\n      tag_29\n      tag_12\n      jump\t// in\n    tag_29:\n      stop\n        /* \"FundeMe.sol\":267:344  mapping (address funder => uint256 amountFunded) public addresstoAmountFunded */\n    tag_7:\n      callvalue\n      dup1\n      iszero\n      tag_30\n      jumpi\n      revert(0x00, 0x00)\n    tag_30:\n      pop\n      tag_31\n      0x04\n      dup1\n      calldatasize\n      sub\n      dup2\n      add\n      swap1\n      tag_32\n      swap2\n      swap1\n      tag_33\n      jump\t// in\n    tag_32:\n      tag_34\n      jump\t// in\n    tag_31:\n      mload(0x40)\n      tag_35\n      swap2\n      swap1\n      tag_23\n      jump\t// in\n    tag_35:\n      mload(0x40)\n      dup1\n      swap2\n      sub\n      swap1\n      return\n        /* \"FundeMe.sol\":237:261  address[] public funders */\n    tag_8:\n      callvalue\n      dup1\n      iszero\n      tag_36\n      jumpi\n      revert(0x00, 0x00)\n    tag_36:\n      pop\n      tag_37\n      0x04\n      dup1\n      calldatasize\n      sub\n      dup2\n      add\n      swap1\n      tag_38\n      swap2\n      swap1\n      tag_39\n      jump\t// in\n    tag_38:\n      tag_40\n      jump\t// in\n    tag_37:\n      mload(0x40)\n      tag_41\n      swap2\n      swap1\n      tag_28\n      jump\t// in\n    tag_41:\n      mload(0x40)\n      dup1\n      swap2\n      sub\n      swap1\n      return\n        /* \"FundeMe.sol\":453:703  function fund() public payable{... */\n    tag_12:\n        /* \"FundeMe.sol\":227:231  5e18 */\n      0x4563918244f40000\n        /* \"FundeMe.sol\":501:530  msg.value.getConversionRate() */\n      tag_43\n        /* \"FundeMe.sol\":501:510  msg.value */\n      callvalue\n        /* \"FundeMe.sol\":501:528  msg.value.getConversionRate */\n      tag_44\n        /* \"FundeMe.sol\":501:530  msg.value.getConversionRate() */\n      jump\t// in\n    tag_43:\n        /* \"FundeMe.sol\":501:539  msg.value.getConversionRate() > minUsd */\n      gt\n        /* \"FundeMe.sol\":493:559  require(msg.value.getConversionRate() > minUsd,\"Not Enough Funds\") */\n      tag_45\n      jumpi\n      mload(0x40)\n      0x08c379a000000000000000000000000000000000000000000000000000000000\n      dup2\n      mstore\n      0x04\n      add\n      tag_46\n      swap1\n      tag_47\n      jump\t// in\n    tag_46:\n      mload(0x40)\n      dup1\n      swap2\n      sub\n      swap1\n      revert\n    tag_45:\n        /* \"FundeMe.sol\":617:624  funders */\n      0x00\n        /* \"FundeMe.sol\":630:640  msg.sender */\n      caller\n        /* \"FundeMe.sol\":617:641  funders.push(msg.sender) */\n      swap1\n      dup1\n      0x01\n      dup2\n      sload\n      add\n      dup1\n      dup3\n      sstore\n      dup1\n      swap2\n      pop\n      pop\n      0x01\n      swap1\n      sub\n      swap1\n      0x00\n      mstore\n      keccak256(0x00, 0x20)\n      add\n      0x00\n      swap1\n      swap2\n      swap1\n      swap2\n      swap1\n      swap2\n      0x0100\n      exp\n      dup2\n      sload\n      dup2\n      0xffffffffffffffffffffffffffffffffffffffff\n      mul\n      not\n      and\n      swap1\n      dup4\n      0xffffffffffffffffffffffffffffffffffffffff\n      and\n      mul\n      or\n      swap1\n      sstore\n      pop\n        /* \"FundeMe.sol\":687:696  msg.value */\n      callvalue\n        /* \"FundeMe.sol\":651:672  addresstoAmountFunded */\n      0x01\n        /* \"FundeMe.sol\":651:684  addresstoAmountFunded[msg.sender] */\n      0x00\n        /* \"FundeMe.sol\":673:683  msg.sender */\n      caller\n        /* \"FundeMe.sol\":651:684  addresstoAmountFunded[msg.sender] */\n      0xffffffffffffffffffffffffffffffffffffffff\n      and\n      0xffffffffffffffffffffffffffffffffffffffff\n      and\n      dup2\n      mstore\n      0x20\n      add\n      swap1\n      dup2\n      mstore\n      0x20\n      add\n      0x00\n      keccak256\n      0x00\n        /* \"FundeMe.sol\":651:696  addresstoAmountFunded[msg.sender] +=msg.value */\n      dup3\n      dup3\n      sload\n      tag_49\n      swap2\n      swap1\n      tag_50\n      jump\t// in\n    tag_49:\n      swap3\n      pop\n      pop\n      dup2\n      swap1\n      sstore\n      pop\n        /* \"FundeMe.sol\":453:703  function fund() public payable{... */\n      jump\t// out\n        /* \"FundeMe.sol\":710:1469  function withdraw() public  onlyOwner{... */\n    tag_18:\n        /* \"FundeMe.sol\":1571:1581  msg.sender */\n      caller\n        /* \"FundeMe.sol\":1562:1581  owner != msg.sender */\n      0xffffffffffffffffffffffffffffffffffffffff\n      and\n        /* \"FundeMe.sol\":1562:1567  owner */\n      immutable(\"0x35bb2e240092263378f77ea1e9c278099a33b604c4c4e26d13ea227e8bb74470\")\n        /* \"FundeMe.sol\":1562:1581  owner != msg.sender */\n      0xffffffffffffffffffffffffffffffffffffffff\n      and\n      eq\n        /* \"FundeMe.sol\":1558:1660  if (owner != msg.sender){... */\n      tag_52\n      jumpi\n        /* \"FundeMe.sol\":1597:1607  notOwner() */\n      mload(0x40)\n      0x251c9d6300000000000000000000000000000000000000000000000000000000\n      dup2\n      mstore\n      0x04\n      add\n      mload(0x40)\n      dup1\n      swap2\n      sub\n      swap1\n      revert\n        /* \"FundeMe.sol\":1558:1660  if (owner != msg.sender){... */\n    tag_52:\n        /* \"FundeMe.sol\":760:779  uint256 funderIndex */\n      0x00\n        /* \"FundeMe.sol\":781:782  0 */\n      0x00\n        /* \"FundeMe.sol\":760:782  uint256 funderIndex= 0 */\n      swap1\n      pop\n        /* \"FundeMe.sol\":755:928  for (uint256 funderIndex= 0 ;funderIndex < funders.length; funderIndex++){... */\n    tag_54:\n        /* \"FundeMe.sol\":798:805  funders */\n      0x00\n        /* \"FundeMe.sol\":798:812  funders.length */\n      dup1\n      sload\n      swap1\n      pop\n        /* \"FundeMe.sol\":784:795  funderIndex */\n      dup2\n        /* \"FundeMe.sol\":784:812  funderIndex < funders.length */\n      lt\n        /* \"FundeMe.sol\":755:928  for (uint256 funderIndex= 0 ;funderIndex < funders.length; funderIndex++){... */\n      iszero\n      tag_55\n      jumpi\n        /* \"FundeMe.sol\":839:853  address funder */\n      0x00\n        /* \"FundeMe.sol\":856:863  funders */\n      0x00\n        /* \"FundeMe.sol\":864:875  funderIndex */\n      dup3\n        /* \"FundeMe.sol\":856:876  funders[funderIndex] */\n      dup2\n      sload\n      dup2\n      lt\n      tag_57\n      jumpi\n      tag_58\n      tag_59\n      jump\t// in\n    tag_58:\n    tag_57:\n      swap1\n      0x00\n      mstore\n      keccak256(0x00, 0x20)\n      add\n      0x00\n      swap1\n      sload\n      swap1\n      0x0100\n      exp\n      swap1\n      div\n      0xffffffffffffffffffffffffffffffffffffffff\n      and\n        /* \"FundeMe.sol\":839:876  address funder = funders[funderIndex] */\n      swap1\n      pop\n        /* \"FundeMe.sol\":918:919  0 */\n      0x00\n        /* \"FundeMe.sol\":886:907  addresstoAmountFunded */\n      0x01\n        /* \"FundeMe.sol\":886:915  addresstoAmountFunded[funder] */\n      0x00\n        /* \"FundeMe.sol\":908:914  funder */\n      dup4\n        /* \"FundeMe.sol\":886:915  addresstoAmountFunded[funder] */\n      0xffffffffffffffffffffffffffffffffffffffff\n      and\n      0xffffffffffffffffffffffffffffffffffffffff\n      and\n      dup2\n      mstore\n      0x20\n      add\n      swap1\n      dup2\n      mstore\n      0x20\n      add\n      0x00\n      keccak256\n        /* \"FundeMe.sol\":886:919  addresstoAmountFunded[funder] = 0 */\n      dup2\n      swap1\n      sstore\n      pop\n        /* \"FundeMe.sol\":828:928  {... */\n      pop\n        /* \"FundeMe.sol\":814:827  funderIndex++ */\n      dup1\n      dup1\n      0x01\n      add\n      swap2\n      pop\n      pop\n        /* \"FundeMe.sol\":755:928  for (uint256 funderIndex= 0 ;funderIndex < funders.length; funderIndex++){... */\n      jump(tag_54)\n    tag_55:\n      pop\n        /* \"FundeMe.sol\":960:961  0 */\n      0x00\n        /* \"FundeMe.sol\":946:962  new address[](0) */\n      0xffffffffffffffff\n      dup2\n      gt\n      iszero\n      tag_61\n      jumpi\n      tag_62\n      tag_63\n      jump\t// in\n    tag_62:\n    tag_61:\n      mload(0x40)\n      swap1\n      dup1\n      dup3\n      mstore\n      dup1\n      0x20\n      mul\n      0x20\n      add\n      dup3\n      add\n      0x40\n      mstore\n      dup1\n      iszero\n      tag_64\n      jumpi\n      dup2\n      0x20\n      add\n      0x20\n      dup3\n      mul\n      dup1\n      calldatasize\n      dup4\n      calldatacopy\n      dup1\n      dup3\n      add\n      swap2\n      pop\n      pop\n      swap1\n      pop\n    tag_64:\n      pop\n        /* \"FundeMe.sol\":936:943  funders */\n      0x00\n        /* \"FundeMe.sol\":936:962  funders = new address[](0) */\n      swap1\n      dup1\n      mload\n      swap1\n      0x20\n      add\n      swap1\n      tag_65\n      swap3\n      swap2\n      swap1\n      tag_66\n      jump\t// in\n    tag_65:\n      pop\n        /* \"FundeMe.sol\":1341:1357  bool callSuccess */\n      0x00\n        /* \"FundeMe.sol\":1370:1380  msg.sender */\n      caller\n        /* \"FundeMe.sol\":1362:1386  payable(msg.sender).call */\n      0xffffffffffffffffffffffffffffffffffffffff\n      and\n        /* \"FundeMe.sol\":1394:1415  address(this).balance */\n      selfbalance\n        /* \"FundeMe.sol\":1362:1420  payable(msg.sender).call{value: address(this).balance}(\"\") */\n      mload(0x40)\n      tag_67\n      swap1\n      tag_68\n      jump\t// in\n    tag_67:\n      0x00\n      mload(0x40)\n      dup1\n      dup4\n      sub\n      dup2\n      dup6\n      dup8\n      gas\n      call\n      swap3\n      pop\n      pop\n      pop\n      returndatasize\n      dup1\n      0x00\n      dup2\n      eq\n      tag_71\n      jumpi\n      mload(0x40)\n      swap2\n      pop\n      and(add(returndatasize, 0x3f), not(0x1f))\n      dup3\n      add\n      0x40\n      mstore\n      returndatasize\n      dup3\n      mstore\n      returndatasize\n      0x00\n      0x20\n      dup5\n      add\n      returndatacopy\n      jump(tag_70)\n    tag_71:\n      0x60\n      swap2\n      pop\n    tag_70:\n      pop\n        /* \"FundeMe.sol\":1340:1420  (bool callSuccess,) = payable(msg.sender).call{value: address(this).balance}(\"\") */\n      pop\n      swap1\n      pop\n        /* \"FundeMe.sol\":1436:1447  callSuccess */\n      dup1\n        /* \"FundeMe.sol\":1428:1462  require(callSuccess,\"call Failed\") */\n      tag_72\n      jumpi\n      mload(0x40)\n      0x08c379a000000000000000000000000000000000000000000000000000000000\n      dup2\n      mstore\n      0x04\n      add\n      tag_73\n      swap1\n      tag_74\n      jump\t// in\n    tag_73:\n      mload(0x40)\n      dup1\n      swap2\n      sub\n      swap1\n      revert\n    tag_72:\n        /* \"FundeMe.sol\":747:1469  {... */\n      pop\n        /* \"FundeMe.sol\":710:1469  function withdraw() public  onlyOwner{... */\n      jump\t// out\n        /* \"FundeMe.sol\":194:231  uint256 public constant minUsd = 5e18 */\n    tag_21:\n        /* \"FundeMe.sol\":227:231  5e18 */\n      0x4563918244f40000\n        /* \"FundeMe.sol\":194:231  uint256 public constant minUsd = 5e18 */\n      dup2\n      jump\t// out\n        /* \"FundeMe.sol\":355:385  address public immutable owner */\n    tag_26:\n      immutable(\"0x35bb2e240092263378f77ea1e9c278099a33b604c4c4e26d13ea227e8bb74470\")\n      dup2\n      jump\t// out\n        /* \"FundeMe.sol\":267:344  mapping (address funder => uint256 amountFunded) public addresstoAmountFunded */\n    tag_34:\n      mstore(0x20, 0x01)\n      dup1\n      0x00\n      mstore\n      keccak256(0x00, 0x40)\n      0x00\n      swap2\n      pop\n      swap1\n      pop\n      sload\n      dup2\n      jump\t// out\n        /* \"FundeMe.sol\":237:261  address[] public funders */\n    tag_40:\n      0x00\n      dup2\n      dup2\n      sload\n      dup2\n      lt\n      tag_75\n      jumpi\n      0x00\n      dup1\n      revert\n    tag_75:\n      swap1\n      0x00\n      mstore\n      keccak256(0x00, 0x20)\n      add\n      0x00\n      swap2\n      pop\n      sload\n      swap1\n      0x0100\n      exp\n      swap1\n      div\n      0xffffffffffffffffffffffffffffffffffffffff\n      and\n      dup2\n      jump\t// out\n        /* \"priceConverter.sol\":680:952  function getConversionRate(uint256 ethAmount) internal view returns(uint256) {... */\n    tag_44:\n        /* \"priceConverter.sol\":748:755  uint256 */\n      0x00\n        /* \"priceConverter.sol\":765:781  uint256 ethPrice */\n      0x00\n        /* \"priceConverter.sol\":784:794  getPrice() */\n      tag_78\n        /* \"priceConverter.sol\":784:792  getPrice */\n      tag_79\n        /* \"priceConverter.sol\":784:794  getPrice() */\n      jump\t// in\n    tag_78:\n        /* \"priceConverter.sol\":765:794  uint256 ethPrice = getPrice() */\n      swap1\n      pop\n        /* \"priceConverter.sol\":802:824  uint256 ethAmountInUsd */\n      0x00\n        /* \"priceConverter.sol\":850:854  1e18 */\n      0x0de0b6b3a7640000\n        /* \"priceConverter.sol\":839:848  ethAmount */\n      dup5\n        /* \"priceConverter.sol\":828:836  ethPrice */\n      dup4\n        /* \"priceConverter.sol\":828:848  ethPrice * ethAmount */\n      tag_80\n      swap2\n      swap1\n      tag_81\n      jump\t// in\n    tag_80:\n        /* \"priceConverter.sol\":827:854  (ethPrice * ethAmount)/1e18 */\n      tag_82\n      swap2\n      swap1\n      tag_83\n      jump\t// in\n    tag_82:\n        /* \"priceConverter.sol\":802:854  uint256 ethAmountInUsd = (ethPrice * ethAmount)/1e18 */\n      swap1\n      pop\n        /* \"priceConverter.sol\":930:944  ethAmountInUsd */\n      dup1\n        /* \"priceConverter.sol\":923:944  return ethAmountInUsd */\n      swap3\n      pop\n      pop\n      pop\n        /* \"priceConverter.sol\":680:952  function getConversionRate(uint256 ethAmount) internal view returns(uint256) {... */\n      swap2\n      swap1\n      pop\n      jump\t// out\n        /* \"priceConverter.sol\":236:674  function getPrice() internal view returns (uint256) {... */\n    tag_79:\n        /* \"priceConverter.sol\":279:286  uint256 */\n      0x00\n        /* \"priceConverter.sol\":296:327  AggregatorV3Interface priceFeed */\n      0x00\n        /* \"priceConverter.sol\":352:394  0x694AA1769357215DE4FAC081bf1f309aDC325306 */\n      0x694aa1769357215de4fac081bf1f309adc325306\n        /* \"priceConverter.sol\":296:395  AggregatorV3Interface priceFeed = AggregatorV3Interface(0x694AA1769357215DE4FAC081bf1f309aDC325306) */\n      swap1\n      pop\n        /* \"priceConverter.sol\":405:417  int256 price */\n      0x00\n        /* \"priceConverter.sol\":424:433  priceFeed */\n      dup2\n        /* \"priceConverter.sol\":424:449  priceFeed.latestRoundData */\n      0xffffffffffffffffffffffffffffffffffffffff\n      and\n      0xfeaf968c\n        /* \"priceConverter.sol\":424:451  priceFeed.latestRoundData() */\n      mload(0x40)\n      dup2\n      0xffffffff\n      and\n      0xe0\n      shl\n      dup2\n      mstore\n      0x04\n      add\n      0xa0\n      mload(0x40)\n      dup1\n      dup4\n      sub\n      dup2\n      dup7\n      gas\n      staticcall\n      iszero\n      dup1\n      iszero\n      tag_86\n      jumpi\n      returndatacopy(0x00, 0x00, returndatasize)\n      revert(0x00, returndatasize)\n    tag_86:\n      pop\n      pop\n      pop\n      pop\n      mload(0x40)\n      returndatasize\n      not(0x1f)\n      0x1f\n      dup3\n      add\n      and\n      dup3\n      add\n      dup1\n      0x40\n      mstore\n      pop\n      dup2\n      add\n      swap1\n      tag_87\n      swap2\n      swap1\n      tag_88\n      jump\t// in\n    tag_87:\n        /* \"priceConverter.sol\":403:451  (,int256 price,,,) = priceFeed.latestRoundData() */\n      pop\n      pop\n      pop\n      swap2\n      pop\n      pop\n        /* \"priceConverter.sol\":662:666  1e10 */\n      0x02540be400\n        /* \"priceConverter.sol\":654:659  price */\n      dup2\n        /* \"priceConverter.sol\":654:666  price * 1e10 */\n      tag_89\n      swap2\n      swap1\n      tag_90\n      jump\t// in\n    tag_89:\n        /* \"priceConverter.sol\":639:667  return uint256(price * 1e10) */\n      swap3\n      pop\n      pop\n      pop\n        /* \"priceConverter.sol\":236:674  function getPrice() internal view returns (uint256) {... */\n      swap1\n      jump\t// out\n    tag_66:\n      dup3\n      dup1\n      sload\n      dup3\n      dup3\n      sstore\n      swap1\n      0x00\n      mstore\n      keccak256(0x00, 0x20)\n      swap1\n      dup2\n      add\n      swap3\n      dup3\n      iszero\n      tag_91\n      jumpi\n      swap2\n      0x20\n      mul\n      dup3\n      add\n    tag_92:\n      dup3\n      dup2\n      gt\n      iszero\n      tag_93\n      jumpi\n      dup3\n      mload\n      dup3\n      exp(0x0100, 0x00)\n      dup2\n      sload\n      dup2\n      0xffffffffffffffffffffffffffffffffffffffff\n      mul\n      not\n      and\n      swap1\n      dup4\n      0xffffffffffffffffffffffffffffffffffffffff\n      and\n      mul\n      or\n      swap1\n      sstore\n      pop\n      swap2\n      0x20\n      add\n      swap2\n      swap1\n      0x01\n      add\n      swap1\n      jump(tag_92)\n    tag_93:\n    tag_91:\n      pop\n      swap1\n      pop\n      tag_94\n      swap2\n      swap1\n      tag_95\n      jump\t// in\n    tag_94:\n      pop\n      swap1\n      jump\t// out\n    tag_95:\n    tag_96:\n      dup1\n      dup3\n      gt\n      iszero\n      tag_97\n      jumpi\n      0x00\n      dup2\n      0x00\n      swap1\n      sstore\n      pop\n      0x01\n      add\n      jump(tag_96)\n    tag_97:\n      pop\n      swap1\n      jump\t// out\n        /* \"#utility.yul\":7:84   */\n    tag_98:\n        /* \"#utility.yul\":44:51   */\n      0x00\n        /* \"#utility.yul\":73:78   */\n      dup2\n        /* \"#utility.yul\":62:78   */\n      swap1\n      pop\n        /* \"#utility.yul\":7:84   */\n      swap2\n      swap1\n      pop\n      jump\t// out\n        /* \"#utility.yul\":90:208   */\n    tag_99:\n        /* \"#utility.yul\":177:201   */\n      tag_130\n        /* \"#utility.yul\":195:200   */\n      dup2\n        /* \"#utility.yul\":177:201   */\n      tag_98\n      jump\t// in\n    tag_130:\n        /* \"#utility.yul\":172:175   */\n      dup3\n        /* \"#utility.yul\":165:202   */\n      mstore\n        /* \"#utility.yul\":90:208   */\n      pop\n      pop\n      jump\t// out\n        /* \"#utility.yul\":214:436   */\n    tag_23:\n        /* \"#utility.yul\":307:311   */\n      0x00\n        /* \"#utility.yul\":345:347   */\n      0x20\n        /* \"#utility.yul\":334:343   */\n      dup3\n        /* \"#utility.yul\":330:348   */\n      add\n        /* \"#utility.yul\":322:348   */\n      swap1\n      pop\n        /* \"#utility.yul\":358:429   */\n      tag_132\n        /* \"#utility.yul\":426:427   */\n      0x00\n        /* \"#utility.yul\":415:424   */\n      dup4\n        /* \"#utility.yul\":411:428   */\n      add\n        /* \"#utility.yul\":402:408   */\n      dup5\n        /* \"#utility.yul\":358:429   */\n      tag_99\n      jump\t// in\n    tag_132:\n        /* \"#utility.yul\":214:436   */\n      swap3\n      swap2\n      pop\n      pop\n      jump\t// out\n        /* \"#utility.yul\":442:568   */\n    tag_100:\n        /* \"#utility.yul\":479:486   */\n      0x00\n        /* \"#utility.yul\":519:561   */\n      0xffffffffffffffffffffffffffffffffffffffff\n        /* \"#utility.yul\":512:517   */\n      dup3\n        /* \"#utility.yul\":508:562   */\n      and\n        /* \"#utility.yul\":497:562   */\n      swap1\n      pop\n        /* \"#utility.yul\":442:568   */\n      swap2\n      swap1\n      pop\n      jump\t// out\n        /* \"#utility.yul\":574:670   */\n    tag_101:\n        /* \"#utility.yul\":611:618   */\n      0x00\n        /* \"#utility.yul\":640:664   */\n      tag_135\n        /* \"#utility.yul\":658:663   */\n      dup3\n        /* \"#utility.yul\":640:664   */\n      tag_100\n      jump\t// in\n    tag_135:\n        /* \"#utility.yul\":629:664   */\n      swap1\n      pop\n        /* \"#utility.yul\":574:670   */\n      swap2\n      swap1\n      pop\n      jump\t// out\n        /* \"#utility.yul\":676:794   */\n    tag_102:\n        /* \"#utility.yul\":763:787   */\n      tag_137\n        /* \"#utility.yul\":781:786   */\n      dup2\n        /* \"#utility.yul\":763:787   */\n      tag_101\n      jump\t// in\n    tag_137:\n        /* \"#utility.yul\":758:761   */\n      dup3\n        /* \"#utility.yul\":751:788   */\n      mstore\n        /* \"#utility.yul\":676:794   */\n      pop\n      pop\n      jump\t// out\n        /* \"#utility.yul\":800:1022   */\n    tag_28:\n        /* \"#utility.yul\":893:897   */\n      0x00\n        /* \"#utility.yul\":931:933   */\n      0x20\n        /* \"#utility.yul\":920:929   */\n      dup3\n        /* \"#utility.yul\":916:934   */\n      add\n        /* \"#utility.yul\":908:934   */\n      swap1\n      pop\n        /* \"#utility.yul\":944:1015   */\n      tag_139\n        /* \"#utility.yul\":1012:1013   */\n      0x00\n        /* \"#utility.yul\":1001:1010   */\n      dup4\n        /* \"#utility.yul\":997:1014   */\n      add\n        /* \"#utility.yul\":988:994   */\n      dup5\n        /* \"#utility.yul\":944:1015   */\n      tag_102\n      jump\t// in\n    tag_139:\n        /* \"#utility.yul\":800:1022   */\n      swap3\n      swap2\n      pop\n      pop\n      jump\t// out\n        /* \"#utility.yul\":1109:1226   */\n    tag_104:\n        /* \"#utility.yul\":1218:1219   */\n      0x00\n        /* \"#utility.yul\":1215:1216   */\n      0x00\n        /* \"#utility.yul\":1208:1220   */\n      revert\n        /* \"#utility.yul\":1355:1477   */\n    tag_106:\n        /* \"#utility.yul\":1428:1452   */\n      tag_144\n        /* \"#utility.yul\":1446:1451   */\n      dup2\n        /* \"#utility.yul\":1428:1452   */\n      tag_101\n      jump\t// in\n    tag_144:\n        /* \"#utility.yul\":1421:1426   */\n      dup2\n        /* \"#utility.yul\":1418:1453   */\n      eq\n        /* \"#utility.yul\":1408:1471   */\n      tag_145\n      jumpi\n        /* \"#utility.yul\":1467:1468   */\n      0x00\n        /* \"#utility.yul\":1464:1465   */\n      0x00\n        /* \"#utility.yul\":1457:1469   */\n      revert\n        /* \"#utility.yul\":1408:1471   */\n    tag_145:\n        /* \"#utility.yul\":1355:1477   */\n      pop\n      jump\t// out\n        /* \"#utility.yul\":1483:1622   */\n    tag_107:\n        /* \"#utility.yul\":1529:1534   */\n      0x00\n        /* \"#utility.yul\":1567:1573   */\n      dup2\n        /* \"#utility.yul\":1554:1574   */\n      calldataload\n        /* \"#utility.yul\":1545:1574   */\n      swap1\n      pop\n        /* \"#utility.yul\":1583:1616   */\n      tag_147\n        /* \"#utility.yul\":1610:1615   */\n      dup2\n        /* \"#utility.yul\":1583:1616   */\n      tag_106\n      jump\t// in\n    tag_147:\n        /* \"#utility.yul\":1483:1622   */\n      swap3\n      swap2\n      pop\n      pop\n      jump\t// out\n        /* \"#utility.yul\":1628:1957   */\n    tag_33:\n        /* \"#utility.yul\":1687:1693   */\n      0x00\n        /* \"#utility.yul\":1736:1738   */\n      0x20\n        /* \"#utility.yul\":1724:1733   */\n      dup3\n        /* \"#utility.yul\":1715:1722   */\n      dup5\n        /* \"#utility.yul\":1711:1734   */\n      sub\n        /* \"#utility.yul\":1707:1739   */\n      slt\n        /* \"#utility.yul\":1704:1823   */\n      iszero\n      tag_149\n      jumpi\n        /* \"#utility.yul\":1742:1821   */\n      tag_150\n      tag_104\n      jump\t// in\n    tag_150:\n        /* \"#utility.yul\":1704:1823   */\n    tag_149:\n        /* \"#utility.yul\":1862:1863   */\n      0x00\n        /* \"#utility.yul\":1887:1940   */\n      tag_151\n        /* \"#utility.yul\":1932:1939   */\n      dup5\n        /* \"#utility.yul\":1923:1929   */\n      dup3\n        /* \"#utility.yul\":1912:1921   */\n      dup6\n        /* \"#utility.yul\":1908:1930   */\n      add\n        /* \"#utility.yul\":1887:1940   */\n      tag_107\n      jump\t// in\n    tag_151:\n        /* \"#utility.yul\":1877:1940   */\n      swap2\n      pop\n        /* \"#utility.yul\":1833:1950   */\n      pop\n        /* \"#utility.yul\":1628:1957   */\n      swap3\n      swap2\n      pop\n      pop\n      jump\t// out\n        /* \"#utility.yul\":1963:2085   */\n    tag_108:\n        /* \"#utility.yul\":2036:2060   */\n      tag_153\n        /* \"#utility.yul\":2054:2059   */\n      dup2\n        /* \"#utility.yul\":2036:2060   */\n      tag_98\n      jump\t// in\n    tag_153:\n        /* \"#utility.yul\":2029:2034   */\n      dup2\n        /* \"#utility.yul\":2026:2061   */\n      eq\n        /* \"#utility.yul\":2016:2079   */\n      tag_154\n      jumpi\n        /* \"#utility.yul\":2075:2076   */\n      0x00\n        /* \"#utility.yul\":2072:2073   */\n      0x00\n        /* \"#utility.yul\":2065:2077   */\n      revert\n        /* \"#utility.yul\":2016:2079   */\n    tag_154:\n        /* \"#utility.yul\":1963:2085   */\n      pop\n      jump\t// out\n        /* \"#utility.yul\":2091:2230   */\n    tag_109:\n        /* \"#utility.yul\":2137:2142   */\n      0x00\n        /* \"#utility.yul\":2175:2181   */\n      dup2\n        /* \"#utility.yul\":2162:2182   */\n      calldataload\n        /* \"#utility.yul\":2153:2182   */\n      swap1\n      pop\n        /* \"#utility.yul\":2191:2224   */\n      tag_156\n        /* \"#utility.yul\":2218:2223   */\n      dup2\n        /* \"#utility.yul\":2191:2224   */\n      tag_108\n      jump\t// in\n    tag_156:\n        /* \"#utility.yul\":2091:2230   */\n      swap3\n      swap2\n      pop\n      pop\n      jump\t// out\n        /* \"#utility.yul\":2236:2565   */\n    tag_39:\n        /* \"#utility.yul\":2295:2301   */\n      0x00\n        /* \"#utility.yul\":2344:2346   */\n      0x20\n        /* \"#utility.yul\":2332:2341   */\n      dup3\n        /* \"#utility.yul\":2323:2330   */\n      dup5\n        /* \"#utility.yul\":2319:2342   */\n      sub\n        /* \"#utility.yul\":2315:2347   */\n      slt\n        /* \"#utility.yul\":2312:2431   */\n      iszero\n      tag_158\n      jumpi\n        /* \"#utility.yul\":2350:2429   */\n      tag_159\n      tag_104\n      jump\t// in\n    tag_159:\n        /* \"#utility.yul\":2312:2431   */\n    tag_158:\n        /* \"#utility.yul\":2470:2471   */\n      0x00\n        /* \"#utility.yul\":2495:2548   */\n      tag_160\n        /* \"#utility.yul\":2540:2547   */\n      dup5\n        /* \"#utility.yul\":2531:2537   */\n      dup3\n        /* \"#utility.yul\":2520:2529   */\n      dup6\n        /* \"#utility.yul\":2516:2538   */\n      add\n        /* \"#utility.yul\":2495:2548   */\n      tag_109\n      jump\t// in\n    tag_160:\n        /* \"#utility.yul\":2485:2548   */\n      swap2\n      pop\n        /* \"#utility.yul\":2441:2558   */\n      pop\n        /* \"#utility.yul\":2236:2565   */\n      swap3\n      swap2\n      pop\n      pop\n      jump\t// out\n        /* \"#utility.yul\":2571:2740   */\n    tag_110:\n        /* \"#utility.yul\":2655:2666   */\n      0x00\n        /* \"#utility.yul\":2689:2695   */\n      dup3\n        /* \"#utility.yul\":2684:2687   */\n      dup3\n        /* \"#utility.yul\":2677:2696   */\n      mstore\n        /* \"#utility.yul\":2729:2733   */\n      0x20\n        /* \"#utility.yul\":2724:2727   */\n      dup3\n        /* \"#utility.yul\":2720:2734   */\n      add\n        /* \"#utility.yul\":2705:2734   */\n      swap1\n      pop\n        /* \"#utility.yul\":2571:2740   */\n      swap3\n      swap2\n      pop\n      pop\n      jump\t// out\n        /* \"#utility.yul\":2746:2912   */\n    tag_111:\n        /* \"#utility.yul\":2886:2904   */\n      0x4e6f7420456e6f7567682046756e647300000000000000000000000000000000\n        /* \"#utility.yul\":2882:2883   */\n      0x00\n        /* \"#utility.yul\":2874:2880   */\n      dup3\n        /* \"#utility.yul\":2870:2884   */\n      add\n        /* \"#utility.yul\":2863:2905   */\n      mstore\n        /* \"#utility.yul\":2746:2912   */\n      pop\n      jump\t// out\n        /* \"#utility.yul\":2918:3284   */\n    tag_112:\n        /* \"#utility.yul\":3060:3063   */\n      0x00\n        /* \"#utility.yul\":3081:3148   */\n      tag_164\n        /* \"#utility.yul\":3145:3147   */\n      0x10\n        /* \"#utility.yul\":3140:3143   */\n      dup4\n        /* \"#utility.yul\":3081:3148   */\n      tag_110\n      jump\t// in\n    tag_164:\n        /* \"#utility.yul\":3074:3148   */\n      swap2\n      pop\n        /* \"#utility.yul\":3157:3250   */\n      tag_165\n        /* \"#utility.yul\":3246:3249   */\n      dup3\n        /* \"#utility.yul\":3157:3250   */\n      tag_111\n      jump\t// in\n    tag_165:\n        /* \"#utility.yul\":3275:3277   */\n      0x20\n        /* \"#utility.yul\":3270:3273   */\n      dup3\n        /* \"#utility.yul\":3266:3278   */\n      add\n        /* \"#utility.yul\":3259:3278   */\n      swap1\n      pop\n        /* \"#utility.yul\":2918:3284   */\n      swap2\n      swap1\n      pop\n      jump\t// out\n        /* \"#utility.yul\":3290:3709   */\n    tag_47:\n        /* \"#utility.yul\":3456:3460   */\n      0x00\n        /* \"#utility.yul\":3494:3496   */\n      0x20\n        /* \"#utility.yul\":3483:3492   */\n      dup3\n        /* \"#utility.yul\":3479:3497   */\n      add\n        /* \"#utility.yul\":3471:3497   */\n      swap1\n      pop\n        /* \"#utility.yul\":3543:3552   */\n      dup2\n        /* \"#utility.yul\":3537:3541   */\n      dup2\n        /* \"#utility.yul\":3533:3553   */\n      sub\n        /* \"#utility.yul\":3529:3530   */\n      0x00\n        /* \"#utility.yul\":3518:3527   */\n      dup4\n        /* \"#utility.yul\":3514:3531   */\n      add\n        /* \"#utility.yul\":3507:3554   */\n      mstore\n        /* \"#utility.yul\":3571:3702   */\n      tag_167\n        /* \"#utility.yul\":3697:3701   */\n      dup2\n        /* \"#utility.yul\":3571:3702   */\n      tag_112\n      jump\t// in\n    tag_167:\n        /* \"#utility.yul\":3563:3702   */\n      swap1\n      pop\n        /* \"#utility.yul\":3290:3709   */\n      swap2\n      swap1\n      pop\n      jump\t// out\n        /* \"#utility.yul\":3715:3895   */\n    tag_113:\n        /* \"#utility.yul\":3763:3840   */\n      0x4e487b7100000000000000000000000000000000000000000000000000000000\n        /* \"#utility.yul\":3760:3761   */\n      0x00\n        /* \"#utility.yul\":3753:3841   */\n      mstore\n        /* \"#utility.yul\":3860:3864   */\n      0x11\n        /* \"#utility.yul\":3857:3858   */\n      0x04\n        /* \"#utility.yul\":3850:3865   */\n      mstore\n        /* \"#utility.yul\":3884:3888   */\n      0x24\n        /* \"#utility.yul\":3881:3882   */\n      0x00\n        /* \"#utility.yul\":3874:3889   */\n      revert\n        /* \"#utility.yul\":3901:4092   */\n    tag_50:\n        /* \"#utility.yul\":3941:3944   */\n      0x00\n        /* \"#utility.yul\":3960:3980   */\n      tag_170\n        /* \"#utility.yul\":3978:3979   */\n      dup3\n        /* \"#utility.yul\":3960:3980   */\n      tag_98\n      jump\t// in\n    tag_170:\n        /* \"#utility.yul\":3955:3980   */\n      swap2\n      pop\n        /* \"#utility.yul\":3994:4014   */\n      tag_171\n        /* \"#utility.yul\":4012:4013   */\n      dup4\n        /* \"#utility.yul\":3994:4014   */\n      tag_98\n      jump\t// in\n    tag_171:\n        /* \"#utility.yul\":3989:4014   */\n      swap3\n      pop\n        /* \"#utility.yul\":4037:4038   */\n      dup3\n        /* \"#utility.yul\":4034:4035   */\n      dup3\n        /* \"#utility.yul\":4030:4039   */\n      add\n        /* \"#utility.yul\":4023:4039   */\n      swap1\n      pop\n        /* \"#utility.yul\":4058:4061   */\n      dup1\n        /* \"#utility.yul\":4055:4056   */\n      dup3\n        /* \"#utility.yul\":4052:4062   */\n      gt\n        /* \"#utility.yul\":4049:4085   */\n      iszero\n      tag_172\n      jumpi\n        /* \"#utility.yul\":4065:4083   */\n      tag_173\n      tag_113\n      jump\t// in\n    tag_173:\n        /* \"#utility.yul\":4049:4085   */\n    tag_172:\n        /* \"#utility.yul\":3901:4092   */\n      swap3\n      swap2\n      pop\n      pop\n      jump\t// out\n        /* \"#utility.yul\":4098:4278   */\n    tag_59:\n        /* \"#utility.yul\":4146:4223   */\n      0x4e487b7100000000000000000000000000000000000000000000000000000000\n        /* \"#utility.yul\":4143:4144   */\n      0x00\n        /* \"#utility.yul\":4136:4224   */\n      mstore\n        /* \"#utility.yul\":4243:4247   */\n      0x32\n        /* \"#utility.yul\":4240:4241   */\n      0x04\n        /* \"#utility.yul\":4233:4248   */\n      mstore\n        /* \"#utility.yul\":4267:4271   */\n      0x24\n        /* \"#utility.yul\":4264:4265   */\n      0x00\n        /* \"#utility.yul\":4257:4272   */\n      revert\n        /* \"#utility.yul\":4284:4464   */\n    tag_63:\n        /* \"#utility.yul\":4332:4409   */\n      0x4e487b7100000000000000000000000000000000000000000000000000000000\n        /* \"#utility.yul\":4329:4330   */\n      0x00\n        /* \"#utility.yul\":4322:4410   */\n      mstore\n        /* \"#utility.yul\":4429:4433   */\n      0x41\n        /* \"#utility.yul\":4426:4427   */\n      0x04\n        /* \"#utility.yul\":4419:4434   */\n      mstore\n        /* \"#utility.yul\":4453:4457   */\n      0x24\n        /* \"#utility.yul\":4450:4451   */\n      0x00\n        /* \"#utility.yul\":4443:4458   */\n      revert\n        /* \"#utility.yul\":4470:4617   */\n    tag_114:\n        /* \"#utility.yul\":4571:4582   */\n      0x00\n        /* \"#utility.yul\":4608:4611   */\n      dup2\n        /* \"#utility.yul\":4593:4611   */\n      swap1\n      pop\n        /* \"#utility.yul\":4470:4617   */\n      swap3\n      swap2\n      pop\n      pop\n      jump\t// out\n        /* \"#utility.yul\":4623:4737   */\n    tag_115:\n      pop\n      jump\t// out\n        /* \"#utility.yul\":4743:5141   */\n    tag_116:\n        /* \"#utility.yul\":4902:4905   */\n      0x00\n        /* \"#utility.yul\":4923:5006   */\n      tag_179\n        /* \"#utility.yul\":5004:5005   */\n      0x00\n        /* \"#utility.yul\":4999:5002   */\n      dup4\n        /* \"#utility.yul\":4923:5006   */\n      tag_114\n      jump\t// in\n    tag_179:\n        /* \"#utility.yul\":4916:5006   */\n      swap2\n      pop\n        /* \"#utility.yul\":5015:5108   */\n      tag_180\n        /* \"#utility.yul\":5104:5107   */\n      dup3\n        /* \"#utility.yul\":5015:5108   */\n      tag_115\n      jump\t// in\n    tag_180:\n        /* \"#utility.yul\":5133:5134   */\n      0x00\n        /* \"#utility.yul\":5128:5131   */\n      dup3\n        /* \"#utility.yul\":5124:5135   */\n      add\n        /* \"#utility.yul\":5117:5135   */\n      swap1\n      pop\n        /* \"#utility.yul\":4743:5141   */\n      swap2\n      swap1\n      pop\n      jump\t// out\n        /* \"#utility.yul\":5147:5526   */\n    tag_68:\n        /* \"#utility.yul\":5331:5334   */\n      0x00\n        /* \"#utility.yul\":5353:5500   */\n      tag_182\n        /* \"#utility.yul\":5496:5499   */\n      dup3\n        /* \"#utility.yul\":5353:5500   */\n      tag_116\n      jump\t// in\n    tag_182:\n        /* \"#utility.yul\":5346:5500   */\n      swap2\n      pop\n        /* \"#utility.yul\":5517:5520   */\n      dup2\n        /* \"#utility.yul\":5510:5520   */\n      swap1\n      pop\n        /* \"#utility.yul\":5147:5526   */\n      swap2\n      swap1\n      pop\n      jump\t// out\n        /* \"#utility.yul\":5532:5693   */\n    tag_117:\n        /* \"#utility.yul\":5672:5685   */\n      0x63616c6c204661696c6564000000000000000000000000000000000000000000\n        /* \"#utility.yul\":5668:5669   */\n      0x00\n        /* \"#utility.yul\":5660:5666   */\n      dup3\n        /* \"#utility.yul\":5656:5670   */\n      add\n        /* \"#utility.yul\":5649:5686   */\n      mstore\n        /* \"#utility.yul\":5532:5693   */\n      pop\n      jump\t// out\n        /* \"#utility.yul\":5699:6065   */\n    tag_118:\n        /* \"#utility.yul\":5841:5844   */\n      0x00\n        /* \"#utility.yul\":5862:5929   */\n      tag_185\n        /* \"#utility.yul\":5926:5928   */\n      0x0b\n        /* \"#utility.yul\":5921:5924   */\n      dup4\n        /* \"#utility.yul\":5862:5929   */\n      tag_110\n      jump\t// in\n    tag_185:\n        /* \"#utility.yul\":5855:5929   */\n      swap2\n      pop\n        /* \"#utility.yul\":5938:6031   */\n      tag_186\n        /* \"#utility.yul\":6027:6030   */\n      dup3\n        /* \"#utility.yul\":5938:6031   */\n      tag_117\n      jump\t// in\n    tag_186:\n        /* \"#utility.yul\":6056:6058   */\n      0x20\n        /* \"#utility.yul\":6051:6054   */\n      dup3\n        /* \"#utility.yul\":6047:6059   */\n      add\n        /* \"#utility.yul\":6040:6059   */\n      swap1\n      pop\n        /* \"#utility.yul\":5699:6065   */\n      swap2\n      swap1\n      pop\n      jump\t// out\n        /* \"#utility.yul\":6071:6490   */\n    tag_74:\n        /* \"#utility.yul\":6237:6241   */\n      0x00\n        /* \"#utility.yul\":6275:6277   */\n      0x20\n        /* \"#utility.yul\":6264:6273   */\n      dup3\n        /* \"#utility.yul\":6260:6278   */\n      add\n        /* \"#utility.yul\":6252:6278   */\n      swap1\n      pop\n        /* \"#utility.yul\":6324:6333   */\n      dup2\n        /* \"#utility.yul\":6318:6322   */\n      dup2\n        /* \"#utility.yul\":6314:6334   */\n      sub\n        /* \"#utility.yul\":6310:6311   */\n      0x00\n        /* \"#utility.yul\":6299:6308   */\n      dup4\n        /* \"#utility.yul\":6295:6312   */\n      add\n        /* \"#utility.yul\":6288:6335   */\n      mstore\n        /* \"#utility.yul\":6352:6483   */\n      tag_188\n        /* \"#utility.yul\":6478:6482   */\n      dup2\n        /* \"#utility.yul\":6352:6483   */\n      tag_118\n      jump\t// in\n    tag_188:\n        /* \"#utility.yul\":6344:6483   */\n      swap1\n      pop\n        /* \"#utility.yul\":6071:6490   */\n      swap2\n      swap1\n      pop\n      jump\t// out\n        /* \"#utility.yul\":6496:6906   */\n    tag_81:\n        /* \"#utility.yul\":6536:6543   */\n      0x00\n        /* \"#utility.yul\":6559:6579   */\n      tag_190\n        /* \"#utility.yul\":6577:6578   */\n      dup3\n        /* \"#utility.yul\":6559:6579   */\n      tag_98\n      jump\t// in\n    tag_190:\n        /* \"#utility.yul\":6554:6579   */\n      swap2\n      pop\n        /* \"#utility.yul\":6593:6613   */\n      tag_191\n        /* \"#utility.yul\":6611:6612   */\n      dup4\n        /* \"#utility.yul\":6593:6613   */\n      tag_98\n      jump\t// in\n    tag_191:\n        /* \"#utility.yul\":6588:6613   */\n      swap3\n      pop\n        /* \"#utility.yul\":6648:6649   */\n      dup3\n        /* \"#utility.yul\":6645:6646   */\n      dup3\n        /* \"#utility.yul\":6641:6650   */\n      mul\n        /* \"#utility.yul\":6670:6700   */\n      tag_192\n        /* \"#utility.yul\":6688:6699   */\n      dup2\n        /* \"#utility.yul\":6670:6700   */\n      tag_98\n      jump\t// in\n    tag_192:\n        /* \"#utility.yul\":6659:6700   */\n      swap2\n      pop\n        /* \"#utility.yul\":6849:6850   */\n      dup3\n        /* \"#utility.yul\":6840:6847   */\n      dup3\n        /* \"#utility.yul\":6836:6851   */\n      div\n        /* \"#utility.yul\":6833:6834   */\n      dup5\n        /* \"#utility.yul\":6830:6852   */\n      eq\n        /* \"#utility.yul\":6810:6811   */\n      dup4\n        /* \"#utility.yul\":6803:6812   */\n      iszero\n        /* \"#utility.yul\":6783:6866   */\n      or\n        /* \"#utility.yul\":6760:6899   */\n      tag_193\n      jumpi\n        /* \"#utility.yul\":6879:6897   */\n      tag_194\n      tag_113\n      jump\t// in\n    tag_194:\n        /* \"#utility.yul\":6760:6899   */\n    tag_193:\n        /* \"#utility.yul\":6544:6906   */\n      pop\n        /* \"#utility.yul\":6496:6906   */\n      swap3\n      swap2\n      pop\n      pop\n      jump\t// out\n        /* \"#utility.yul\":6912:7092   */\n    tag_119:\n        /* \"#utility.yul\":6960:7037   */\n      0x4e487b7100000000000000000000000000000000000000000000000000000000\n        /* \"#utility.yul\":6957:6958   */\n      0x00\n        /* \"#utility.yul\":6950:7038   */\n      mstore\n        /* \"#utility.yul\":7057:7061   */\n      0x12\n        /* \"#utility.yul\":7054:7055   */\n      0x04\n        /* \"#utility.yul\":7047:7062   */\n      mstore\n        /* \"#utility.yul\":7081:7085   */\n      0x24\n        /* \"#utility.yul\":7078:7079   */\n      0x00\n        /* \"#utility.yul\":7071:7086   */\n      revert\n        /* \"#utility.yul\":7098:7283   */\n    tag_83:\n        /* \"#utility.yul\":7138:7139   */\n      0x00\n        /* \"#utility.yul\":7155:7175   */\n      tag_197\n        /* \"#utility.yul\":7173:7174   */\n      dup3\n        /* \"#utility.yul\":7155:7175   */\n      tag_98\n      jump\t// in\n    tag_197:\n        /* \"#utility.yul\":7150:7175   */\n      swap2\n      pop\n        /* \"#utility.yul\":7189:7209   */\n      tag_198\n        /* \"#utility.yul\":7207:7208   */\n      dup4\n        /* \"#utility.yul\":7189:7209   */\n      tag_98\n      jump\t// in\n    tag_198:\n        /* \"#utility.yul\":7184:7209   */\n      swap3\n      pop\n        /* \"#utility.yul\":7228:7229   */\n      dup3\n        /* \"#utility.yul\":7218:7253   */\n      tag_199\n      jumpi\n        /* \"#utility.yul\":7233:7251   */\n      tag_200\n      tag_119\n      jump\t// in\n    tag_200:\n        /* \"#utility.yul\":7218:7253   */\n    tag_199:\n        /* \"#utility.yul\":7275:7276   */\n      dup3\n        /* \"#utility.yul\":7272:7273   */\n      dup3\n        /* \"#utility.yul\":7268:7277   */\n      div\n        /* \"#utility.yul\":7263:7277   */\n      swap1\n      pop\n        /* \"#utility.yul\":7098:7283   */\n      swap3\n      swap2\n      pop\n      pop\n      jump\t// out\n        /* \"#utility.yul\":7289:7394   */\n    tag_120:\n        /* \"#utility.yul\":7325:7332   */\n      0x00\n        /* \"#utility.yul\":7365:7387   */\n      0xffffffffffffffffffff\n        /* \"#utility.yul\":7358:7363   */\n      dup3\n        /* \"#utility.yul\":7354:7388   */\n      and\n        /* \"#utility.yul\":7343:7388   */\n      swap1\n      pop\n        /* \"#utility.yul\":7289:7394   */\n      swap2\n      swap1\n      pop\n      jump\t// out\n        /* \"#utility.yul\":7400:7520   */\n    tag_121:\n        /* \"#utility.yul\":7472:7495   */\n      tag_203\n        /* \"#utility.yul\":7489:7494   */\n      dup2\n        /* \"#utility.yul\":7472:7495   */\n      tag_120\n      jump\t// in\n    tag_203:\n        /* \"#utility.yul\":7465:7470   */\n      dup2\n        /* \"#utility.yul\":7462:7496   */\n      eq\n        /* \"#utility.yul\":7452:7514   */\n      tag_204\n      jumpi\n        /* \"#utility.yul\":7510:7511   */\n      0x00\n        /* \"#utility.yul\":7507:7508   */\n      0x00\n        /* \"#utility.yul\":7500:7512   */\n      revert\n        /* \"#utility.yul\":7452:7514   */\n    tag_204:\n        /* \"#utility.yul\":7400:7520   */\n      pop\n      jump\t// out\n        /* \"#utility.yul\":7526:7667   */\n    tag_122:\n        /* \"#utility.yul\":7582:7587   */\n      0x00\n        /* \"#utility.yul\":7613:7619   */\n      dup2\n        /* \"#utility.yul\":7607:7620   */\n      mload\n        /* \"#utility.yul\":7598:7620   */\n      swap1\n      pop\n        /* \"#utility.yul\":7629:7661   */\n      tag_206\n        /* \"#utility.yul\":7655:7660   */\n      dup2\n        /* \"#utility.yul\":7629:7661   */\n      tag_121\n      jump\t// in\n    tag_206:\n        /* \"#utility.yul\":7526:7667   */\n      swap3\n      swap2\n      pop\n      pop\n      jump\t// out\n        /* \"#utility.yul\":7673:7749   */\n    tag_123:\n        /* \"#utility.yul\":7709:7716   */\n      0x00\n        /* \"#utility.yul\":7738:7743   */\n      dup2\n        /* \"#utility.yul\":7727:7743   */\n      swap1\n      pop\n        /* \"#utility.yul\":7673:7749   */\n      swap2\n      swap1\n      pop\n      jump\t// out\n        /* \"#utility.yul\":7755:7875   */\n    tag_124:\n        /* \"#utility.yul\":7827:7850   */\n      tag_209\n        /* \"#utility.yul\":7844:7849   */\n      dup2\n        /* \"#utility.yul\":7827:7850   */\n      tag_123\n      jump\t// in\n    tag_209:\n        /* \"#utility.yul\":7820:7825   */\n      dup2\n        /* \"#utility.yul\":7817:7851   */\n      eq\n        /* \"#utility.yul\":7807:7869   */\n      tag_210\n      jumpi\n        /* \"#utility.yul\":7865:7866   */\n      0x00\n        /* \"#utility.yul\":7862:7863   */\n      0x00\n        /* \"#utility.yul\":7855:7867   */\n      revert\n        /* \"#utility.yul\":7807:7869   */\n    tag_210:\n        /* \"#utility.yul\":7755:7875   */\n      pop\n      jump\t// out\n        /* \"#utility.yul\":7881:8022   */\n    tag_125:\n        /* \"#utility.yul\":7937:7942   */\n      0x00\n        /* \"#utility.yul\":7968:7974   */\n      dup2\n        /* \"#utility.yul\":7962:7975   */\n      mload\n        /* \"#utility.yul\":7953:7975   */\n      swap1\n      pop\n        /* \"#utility.yul\":7984:8016   */\n      tag_212\n        /* \"#utility.yul\":8010:8015   */\n      dup2\n        /* \"#utility.yul\":7984:8016   */\n      tag_124\n      jump\t// in\n    tag_212:\n        /* \"#utility.yul\":7881:8022   */\n      swap3\n      swap2\n      pop\n      pop\n      jump\t// out\n        /* \"#utility.yul\":8028:8171   */\n    tag_126:\n        /* \"#utility.yul\":8085:8090   */\n      0x00\n        /* \"#utility.yul\":8116:8122   */\n      dup2\n        /* \"#utility.yul\":8110:8123   */\n      mload\n        /* \"#utility.yul\":8101:8123   */\n      swap1\n      pop\n        /* \"#utility.yul\":8132:8165   */\n      tag_214\n        /* \"#utility.yul\":8159:8164   */\n      dup2\n        /* \"#utility.yul\":8132:8165   */\n      tag_108\n      jump\t// in\n    tag_214:\n        /* \"#utility.yul\":8028:8171   */\n      swap3\n      swap2\n      pop\n      pop\n      jump\t// out\n        /* \"#utility.yul\":8177:9148   */\n    tag_88:\n        /* \"#utility.yul\":8280:8286   */\n      0x00\n        /* \"#utility.yul\":8288:8294   */\n      0x00\n        /* \"#utility.yul\":8296:8302   */\n      0x00\n        /* \"#utility.yul\":8304:8310   */\n      0x00\n        /* \"#utility.yul\":8312:8318   */\n      0x00\n        /* \"#utility.yul\":8361:8364   */\n      0xa0\n        /* \"#utility.yul\":8349:8358   */\n      dup7\n        /* \"#utility.yul\":8340:8347   */\n      dup9\n        /* \"#utility.yul\":8336:8359   */\n      sub\n        /* \"#utility.yul\":8332:8365   */\n      slt\n        /* \"#utility.yul\":8329:8449   */\n      iszero\n      tag_216\n      jumpi\n        /* \"#utility.yul\":8368:8447   */\n      tag_217\n      tag_104\n      jump\t// in\n    tag_217:\n        /* \"#utility.yul\":8329:8449   */\n    tag_216:\n        /* \"#utility.yul\":8488:8489   */\n      0x00\n        /* \"#utility.yul\":8513:8576   */\n      tag_218\n        /* \"#utility.yul\":8568:8575   */\n      dup9\n        /* \"#utility.yul\":8559:8565   */\n      dup3\n        /* \"#utility.yul\":8548:8557   */\n      dup10\n        /* \"#utility.yul\":8544:8566   */\n      add\n        /* \"#utility.yul\":8513:8576   */\n      tag_122\n      jump\t// in\n    tag_218:\n        /* \"#utility.yul\":8503:8576   */\n      swap6\n      pop\n        /* \"#utility.yul\":8459:8586   */\n      pop\n        /* \"#utility.yul\":8625:8627   */\n      0x20\n        /* \"#utility.yul\":8651:8714   */\n      tag_219\n        /* \"#utility.yul\":8706:8713   */\n      dup9\n        /* \"#utility.yul\":8697:8703   */\n      dup3\n        /* \"#utility.yul\":8686:8695   */\n      dup10\n        /* \"#utility.yul\":8682:8704   */\n      add\n        /* \"#utility.yul\":8651:8714   */\n      tag_125\n      jump\t// in\n    tag_219:\n        /* \"#utility.yul\":8641:8714   */\n      swap5\n      pop\n        /* \"#utility.yul\":8596:8724   */\n      pop\n        /* \"#utility.yul\":8763:8765   */\n      0x40\n        /* \"#utility.yul\":8789:8853   */\n      tag_220\n        /* \"#utility.yul\":8845:8852   */\n      dup9\n        /* \"#utility.yul\":8836:8842   */\n      dup3\n        /* \"#utility.yul\":8825:8834   */\n      dup10\n        /* \"#utility.yul\":8821:8843   */\n      add\n        /* \"#utility.yul\":8789:8853   */\n      tag_126\n      jump\t// in\n    tag_220:\n        /* \"#utility.yul\":8779:8853   */\n      swap4\n      pop\n        /* \"#utility.yul\":8734:8863   */\n      pop\n        /* \"#utility.yul\":8902:8904   */\n      0x60\n        /* \"#utility.yul\":8928:8992   */\n      tag_221\n        /* \"#utility.yul\":8984:8991   */\n      dup9\n        /* \"#utility.yul\":8975:8981   */\n      dup3\n        /* \"#utility.yul\":8964:8973   */\n      dup10\n        /* \"#utility.yul\":8960:8982   */\n      add\n        /* \"#utility.yul\":8928:8992   */\n      tag_126\n      jump\t// in\n    tag_221:\n        /* \"#utility.yul\":8918:8992   */\n      swap3\n      pop\n        /* \"#utility.yul\":8873:9002   */\n      pop\n        /* \"#utility.yul\":9041:9044   */\n      0x80\n        /* \"#utility.yul\":9068:9131   */\n      tag_222\n        /* \"#utility.yul\":9123:9130   */\n      dup9\n        /* \"#utility.yul\":9114:9120   */\n      dup3\n        /* \"#utility.yul\":9103:9112   */\n      dup10\n        /* \"#utility.yul\":9099:9121   */\n      add\n        /* \"#utility.yul\":9068:9131   */\n      tag_122\n      jump\t// in\n    tag_222:\n        /* \"#utility.yul\":9058:9131   */\n      swap2\n      pop\n        /* \"#utility.yul\":9012:9141   */\n      pop\n        /* \"#utility.yul\":8177:9148   */\n      swap3\n      swap6\n      pop\n      swap3\n      swap6\n      swap1\n      swap4\n      pop\n      jump\t// out\n        /* \"#utility.yul\":9154:9710   */\n    tag_90:\n        /* \"#utility.yul\":9193:9200   */\n      0x00\n        /* \"#utility.yul\":9216:9235   */\n      tag_224\n        /* \"#utility.yul\":9233:9234   */\n      dup3\n        /* \"#utility.yul\":9216:9235   */\n      tag_123\n      jump\t// in\n    tag_224:\n        /* \"#utility.yul\":9211:9235   */\n      swap2\n      pop\n        /* \"#utility.yul\":9249:9268   */\n      tag_225\n        /* \"#utility.yul\":9266:9267   */\n      dup4\n        /* \"#utility.yul\":9249:9268   */\n      tag_123\n      jump\t// in\n    tag_225:\n        /* \"#utility.yul\":9244:9268   */\n      swap3\n      pop\n        /* \"#utility.yul\":9303:9304   */\n      dup3\n        /* \"#utility.yul\":9300:9301   */\n      dup3\n        /* \"#utility.yul\":9296:9305   */\n      mul\n        /* \"#utility.yul\":9325:9354   */\n      tag_226\n        /* \"#utility.yul\":9342:9353   */\n      dup2\n        /* \"#utility.yul\":9325:9354   */\n      tag_123\n      jump\t// in\n    tag_226:\n        /* \"#utility.yul\":9314:9354   */\n      swap2\n      pop\n        /* \"#utility.yul\":9412:9478   */\n      0x8000000000000000000000000000000000000000000000000000000000000000\n        /* \"#utility.yul\":9409:9410   */\n      dup5\n        /* \"#utility.yul\":9406:9479   */\n      eq\n        /* \"#utility.yul\":9402:9403   */\n      0x00\n        /* \"#utility.yul\":9399:9400   */\n      dup5\n        /* \"#utility.yul\":9395:9404   */\n      slt\n        /* \"#utility.yul\":9391:9480   */\n      and\n        /* \"#utility.yul\":9388:9503   */\n      iszero\n      tag_227\n      jumpi\n        /* \"#utility.yul\":9483:9501   */\n      tag_228\n      tag_113\n      jump\t// in\n    tag_228:\n        /* \"#utility.yul\":9388:9503   */\n    tag_227:\n        /* \"#utility.yul\":9653:9654   */\n      dup3\n        /* \"#utility.yul\":9644:9651   */\n      dup3\n        /* \"#utility.yul\":9639:9655   */\n      sdiv\n        /* \"#utility.yul\":9636:9637   */\n      dup5\n        /* \"#utility.yul\":9633:9656   */\n      eq\n        /* \"#utility.yul\":9613:9614   */\n      dup4\n        /* \"#utility.yul\":9606:9615   */\n      iszero\n        /* \"#utility.yul\":9586:9670   */\n      or\n        /* \"#utility.yul\":9563:9703   */\n      tag_229\n      jumpi\n        /* \"#utility.yul\":9683:9701   */\n      tag_230\n      tag_113\n      jump\t// in\n    tag_230:\n        /* \"#utility.yul\":9563:9703   */\n    tag_229:\n        /* \"#utility.yul\":9201:9710   */\n      pop\n        /* \"#utility.yul\":9154:9710   */\n      swap3\n      swap2\n      pop\n      pop\n      jump\t// out\n\n    auxdata: 0xa26469706673582212206ca94928309e499c761fed259b5979a2b401123e330c1e8766cfaeb2e74ba87464736f6c634300081e0033\n}\n",
				"bytecode": {
					"linkReferences": {},
					"object": "60a06040523373ffffffffffffffffffffffffffffffffffffffff1660808173ffffffffffffffffffffffffffffffffffffffff1681525050608051610be86100575f395f818161027c015261049f0152610be85ff3fe608060405260043610610058575f3560e01c80633ccfd60b1461007157806351b80e41146100875780638da5cb5b146100b1578063b60d4288146100db578063db9bae19146100e5578063dc0d3dff1461012157610067565b366100675761006561015d565b005b61006f61015d565b005b34801561007c575f5ffd5b50610085610263565b005b348015610092575f5ffd5b5061009b610491565b6040516100a891906106a7565b60405180910390f35b3480156100bc575f5ffd5b506100c561049d565b6040516100d291906106ff565b60405180910390f35b6100e361015d565b005b3480156100f0575f5ffd5b5061010b60048036038101906101069190610746565b6104c1565b60405161011891906106a7565b60405180910390f35b34801561012c575f5ffd5b506101476004803603810190610142919061079b565b6104d6565b60405161015491906106ff565b60405180910390f35b674563918244f4000061016f34610510565b116101af576040517f08c379a00000000000000000000000000000000000000000000000000000000081526004016101a690610820565b60405180910390fd5b5f33908060018154018082558091505060019003905f5260205f20015f9091909190916101000a81548173ffffffffffffffffffffffffffffffffffffffff021916908373ffffffffffffffffffffffffffffffffffffffff1602179055503460015f3373ffffffffffffffffffffffffffffffffffffffff1673ffffffffffffffffffffffffffffffffffffffff1681526020019081526020015f205f82825461025a919061086b565b92505081905550565b3373ffffffffffffffffffffffffffffffffffffffff167f000000000000000000000000000000000000000000000000000000000000000073ffffffffffffffffffffffffffffffffffffffff16146102e8576040517f251c9d6300000000000000000000000000000000000000000000000000000000815260040160405180910390fd5b5f5f90505b5f80549050811015610387575f5f828154811061030d5761030c61089e565b5b905f5260205f20015f9054906101000a900473ffffffffffffffffffffffffffffffffffffffff1690505f60015f8373ffffffffffffffffffffffffffffffffffffffff1673ffffffffffffffffffffffffffffffffffffffff1681526020019081526020015f20819055505080806001019150506102ed565b505f67ffffffffffffffff8111156103a2576103a16108cb565b5b6040519080825280602002602001820160405280156103d05781602001602082028036833780820191505090505b505f90805190602001906103e59291906105ed565b505f3373ffffffffffffffffffffffffffffffffffffffff164760405161040b90610925565b5f6040518083038185875af1925050503d805f8114610445576040519150601f19603f3d011682016040523d82523d5f602084013e61044a565b606091505b505090508061048e576040517f08c379a000000000000000000000000000000000000000000000000000000000815260040161048590610983565b60405180910390fd5b50565b674563918244f4000081565b7f000000000000000000000000000000000000000000000000000000000000000081565b6001602052805f5260405f205f915090505481565b5f81815481106104e4575f80fd5b905f5260205f20015f915054906101000a900473ffffffffffffffffffffffffffffffffffffffff1681565b5f5f61051a610548565b90505f670de0b6b3a7640000848361053291906109a1565b61053c9190610a0f565b90508092505050919050565b5f5f73694aa1769357215de4fac081bf1f309adc32530690505f8173ffffffffffffffffffffffffffffffffffffffff1663feaf968c6040518163ffffffff1660e01b815260040160a060405180830381865afa1580156105ab573d5f5f3e3d5ffd5b505050506040513d601f19601f820116820180604052508101906105cf9190610ac5565b5050509150506402540be400816105e69190610b3c565b9250505090565b828054828255905f5260205f20908101928215610663579160200282015b82811115610662578251825f6101000a81548173ffffffffffffffffffffffffffffffffffffffff021916908373ffffffffffffffffffffffffffffffffffffffff1602179055509160200191906001019061060b565b5b5090506106709190610674565b5090565b5b8082111561068b575f815f905550600101610675565b5090565b5f819050919050565b6106a18161068f565b82525050565b5f6020820190506106ba5f830184610698565b92915050565b5f73ffffffffffffffffffffffffffffffffffffffff82169050919050565b5f6106e9826106c0565b9050919050565b6106f9816106df565b82525050565b5f6020820190506107125f8301846106f0565b92915050565b5f5ffd5b610725816106df565b811461072f575f5ffd5b50565b5f813590506107408161071c565b92915050565b5f6020828403121561075b5761075a610718565b5b5f61076884828501610732565b91505092915050565b61077a8161068f565b8114610784575f5ffd5b50565b5f8135905061079581610771565b92915050565b5f602082840312156107b0576107af610718565b5b5f6107bd84828501610787565b91505092915050565b5f82825260208201905092915050565b7f4e6f7420456e6f7567682046756e6473000000000000000000000000000000005f82015250565b5f61080a6010836107c6565b9150610815826107d6565b602082019050919050565b5f6020820190508181035f830152610837816107fe565b9050919050565b7f4e487b71000000000000000000000000000000000000000000000000000000005f52601160045260245ffd5b5f6108758261068f565b91506108808361068f565b92508282019050808211156108985761089761083e565b5b92915050565b7f4e487b71000000000000000000000000000000000000000000000000000000005f52603260045260245ffd5b7f4e487b71000000000000000000000000000000000000000000000000000000005f52604160045260245ffd5b5f81905092915050565b50565b5f6109105f836108f8565b915061091b82610902565b5f82019050919050565b5f61092f82610905565b9150819050919050565b7f63616c6c204661696c65640000000000000000000000000000000000000000005f82015250565b5f61096d600b836107c6565b915061097882610939565b602082019050919050565b5f6020820190508181035f83015261099a81610961565b9050919050565b5f6109ab8261068f565b91506109b68361068f565b92508282026109c48161068f565b915082820484148315176109db576109da61083e565b5b5092915050565b7f4e487b71000000000000000000000000000000000000000000000000000000005f52601260045260245ffd5b5f610a198261068f565b9150610a248361068f565b925082610a3457610a336109e2565b5b828204905092915050565b5f69ffffffffffffffffffff82169050919050565b610a5d81610a3f565b8114610a67575f5ffd5b50565b5f81519050610a7881610a54565b92915050565b5f819050919050565b610a9081610a7e565b8114610a9a575f5ffd5b50565b5f81519050610aab81610a87565b92915050565b5f81519050610abf81610771565b92915050565b5f5f5f5f5f60a08688031215610ade57610add610718565b5b5f610aeb88828901610a6a565b9550506020610afc88828901610a9d565b9450506040610b0d88828901610ab1565b9350506060610b1e88828901610ab1565b9250506080610b2f88828901610a6a565b9150509295509295909350565b5f610b4682610a7e565b9150610b5183610a7e565b9250828202610b5f81610a7e565b91507f800000000000000000000000000000000000000000000000000000000000000084145f84121615610b9657610b9561083e565b5b8282058414831517610bab57610baa61083e565b5b509291505056fea26469706673582212206ca94928309e499c761fed259b5979a2b401123e330c1e8766cfaeb2e74ba87464736f6c634300081e0033",
					"opcodes": "PUSH1 0xA0 PUSH1 0x40 MSTORE CALLER PUSH20 0xFFFFFFFFFFFFFFFFFFFFFFFFFFFFFFFFFFFFFFFF AND PUSH1 0x80 DUP2 PUSH20 0xFFFFFFFFFFFFFFFFFFFFFFFFFFFFFFFFFFFFFFFF AND DUP2 MSTORE POP POP PUSH1 0x80 MLOAD PUSH2 0xBE8 PUSH2 0x57 PUSH0 CODECOPY PUSH0 DUP2 DUP2 PUSH2 0x27C ADD MSTORE PUSH2 0x49F ADD MSTORE PUSH2 0xBE8 PUSH0 RETURN INVALID PUSH1 0x80 PUSH1 0x40 MSTORE PUSH1 0x4 CALLDATASIZE LT PUSH2 0x58 JUMPI PUSH0 CALLDATALOAD PUSH1 0xE0 SHR DUP1 PUSH4 0x3CCFD60B EQ PUSH2 0x71 JUMPI DUP1 PUSH4 0x51B80E41 EQ PUSH2 0x87 JUMPI DUP1 PUSH4 0x8DA5CB5B EQ PUSH2 0xB1 JUMPI DUP1 PUSH4 0xB60D4288 EQ PUSH2 0xDB JUMPI DUP1 PUSH4 0xDB9BAE19 EQ PUSH2 0xE5 JUMPI DUP1 PUSH4 0xDC0D3DFF EQ PUSH2 0x121 JUMPI PUSH2 0x67 JUMP JUMPDEST CALLDATASIZE PUSH2 0x67 JUMPI PUSH2 0x65 PUSH2 0x15D JUMP JUMPDEST STOP JUMPDEST PUSH2 0x6F PUSH2 0x15D JUMP JUMPDEST STOP JUMPDEST CALLVALUE DUP1 ISZERO PUSH2 0x7C JUMPI PUSH0 PUSH0 REVERT JUMPDEST POP PUSH2 0x85 PUSH2 0x263 JUMP JUMPDEST STOP JUMPDEST CALLVALUE DUP1 ISZERO PUSH2 0x92 JUMPI PUSH0 PUSH0 REVERT JUMPDEST POP PUSH2 0x9B PUSH2 0x491 JUMP JUMPDEST PUSH1 0x40 MLOAD PUSH2 0xA8 SWAP2 SWAP1 PUSH2 0x6A7 JUMP JUMPDEST PUSH1 0x40 MLOAD DUP1 SWAP2 SUB SWAP1 RETURN JUMPDEST CALLVALUE DUP1 ISZERO PUSH2 0xBC JUMPI PUSH0 PUSH0 REVERT JUMPDEST POP PUSH2 0xC5 PUSH2 0x49D JUMP JUMPDEST PUSH1 0x40 MLOAD PUSH2 0xD2 SWAP2 SWAP1 PUSH2 0x6FF JUMP JUMPDEST PUSH1 0x40 MLOAD DUP1 SWAP2 SUB SWAP1 RETURN JUMPDEST PUSH2 0xE3 PUSH2 0x15D JUMP JUMPDEST STOP JUMPDEST CALLVALUE DUP1 ISZERO PUSH2 0xF0 JUMPI PUSH0 PUSH0 REVERT JUMPDEST POP PUSH2 0x10B PUSH1 0x4 DUP1 CALLDATASIZE SUB DUP2 ADD SWAP1 PUSH2 0x106 SWAP2 SWAP1 PUSH2 0x746 JUMP JUMPDEST PUSH2 0x4C1 JUMP JUMPDEST PUSH1 0x40 MLOAD PUSH2 0x118 SWAP2 SWAP1 PUSH2 0x6A7 JUMP JUMPDEST PUSH1 0x40 MLOAD DUP1 SWAP2 SUB SWAP1 RETURN JUMPDEST CALLVALUE DUP1 ISZERO PUSH2 0x12C JUMPI PUSH0 PUSH0 REVERT JUMPDEST POP PUSH2 0x147 PUSH1 0x4 DUP1 CALLDATASIZE SUB DUP2 ADD SWAP1 PUSH2 0x142 SWAP2 SWAP1 PUSH2 0x79B JUMP JUMPDEST PUSH2 0x4D6 JUMP JUMPDEST PUSH1 0x40 MLOAD PUSH2 0x154 SWAP2 SWAP1 PUSH2 0x6FF JUMP JUMPDEST PUSH1 0x40 MLOAD DUP1 SWAP2 SUB SWAP1 RETURN JUMPDEST PUSH8 0x4563918244F40000 PUSH2 0x16F CALLVALUE PUSH2 0x510 JUMP JUMPDEST GT PUSH2 0x1AF JUMPI PUSH1 0x40 MLOAD PUSH32 0x8C379A000000000000000000000000000000000000000000000000000000000 DUP2 MSTORE PUSH1 0x4 ADD PUSH2 0x1A6 SWAP1 PUSH2 0x820 JUMP JUMPDEST PUSH1 0x40 MLOAD DUP1 SWAP2 SUB SWAP1 REVERT JUMPDEST PUSH0 CALLER SWAP1 DUP1 PUSH1 0x1 DUP2 SLOAD ADD DUP1 DUP3 SSTORE DUP1 SWAP2 POP POP PUSH1 0x1 SWAP1 SUB SWAP1 PUSH0 MSTORE PUSH1 0x20 PUSH0 KECCAK256 ADD PUSH0 SWAP1 SWAP2 SWAP1 SWAP2 SWAP1 SWAP2 PUSH2 0x100 EXP DUP2 SLOAD DUP2 PUSH20 0xFFFFFFFFFFFFFFFFFFFFFFFFFFFFFFFFFFFFFFFF MUL NOT AND SWAP1 DUP4 PUSH20 0xFFFFFFFFFFFFFFFFFFFFFFFFFFFFFFFFFFFFFFFF AND MUL OR SWAP1 SSTORE POP CALLVALUE PUSH1 0x1 PUSH0 CALLER PUSH20 0xFFFFFFFFFFFFFFFFFFFFFFFFFFFFFFFFFFFFFFFF AND PUSH20 0xFFFFFFFFFFFFFFFFFFFFFFFFFFFFFFFFFFFFFFFF AND DUP2 MSTORE PUSH1 0x20 ADD SWAP1 DUP2 MSTORE PUSH1 0x20 ADD PUSH0 KECCAK256 PUSH0 DUP3 DUP3 SLOAD PUSH2 0x25A SWAP2 SWAP1 PUSH2 0x86B JUMP JUMPDEST SWAP3 POP POP DUP2 SWAP1 SSTORE POP JUMP JUMPDEST CALLER PUSH20 0xFFFFFFFFFFFFFFFFFFFFFFFFFFFFFFFFFFFFFFFF AND PUSH32 0x0 PUSH20 0xFFFFFFFFFFFFFFFFFFFFFFFFFFFFFFFFFFFFFFFF AND EQ PUSH2 0x2E8 JUMPI PUSH1 0x40 MLOAD PUSH32 0x251C9D6300000000000000000000000000000000000000000000000000000000 DUP2 MSTORE PUSH1 0x4 ADD PUSH1 0x40 MLOAD DUP1 SWAP2 SUB SWAP1 REVERT JUMPDEST PUSH0 PUSH0 SWAP1 POP JUMPDEST PUSH0 DUP1 SLOAD SWAP1 POP DUP2 LT ISZERO PUSH2 0x387 JUMPI PUSH0 PUSH0 DUP3 DUP2 SLOAD DUP2 LT PUSH2 0x30D JUMPI PUSH2 0x30C PUSH2 0x89E JUMP JUMPDEST JUMPDEST SWAP1 PUSH0 MSTORE PUSH1 0x20 PUSH0 KECCAK256 ADD PUSH0 SWAP1 SLOAD SWAP1 PUSH2 0x100 EXP SWAP1 DIV PUSH20 0xFFFFFFFFFFFFFFFFFFFFFFFFFFFFFFFFFFFFFFFF AND SWAP1 POP PUSH0 PUSH1 0x1 PUSH0 DUP4 PUSH20 0xFFFFFFFFFFFFFFFFFFFFFFFFFFFFFFFFFFFFFFFF AND PUSH20 0xFFFFFFFFFFFFFFFFFFFFFFFFFFFFFFFFFFFFFFFF AND DUP2 MSTORE PUSH1 0x20 ADD SWAP1 DUP2 MSTORE PUSH1 0x20 ADD PUSH0 KECCAK256 DUP2 SWAP1 SSTORE POP POP DUP1 DUP1 PUSH1 0x1 ADD SWAP2 POP POP PUSH2 0x2ED JUMP JUMPDEST POP PUSH0 PUSH8 0xFFFFFFFFFFFFFFFF DUP2 GT ISZERO PUSH2 0x3A2 JUMPI PUSH2 0x3A1 PUSH2 0x8CB JUMP JUMPDEST JUMPDEST PUSH1 0x40 MLOAD SWAP1 DUP1 DUP3 MSTORE DUP1 PUSH1 0x20 MUL PUSH1 0x20 ADD DUP3 ADD PUSH1 0x40 MSTORE DUP1 ISZERO PUSH2 0x3D0 JUMPI DUP2 PUSH1 0x20 ADD PUSH1 0x20 DUP3 MUL DUP1 CALLDATASIZE DUP4 CALLDATACOPY DUP1 DUP3 ADD SWAP2 POP POP SWAP1 POP JUMPDEST POP PUSH0 SWAP1 DUP1 MLOAD SWAP1 PUSH1 0x20 ADD SWAP1 PUSH2 0x3E5 SWAP3 SWAP2 SWAP1 PUSH2 0x5ED JUMP JUMPDEST POP PUSH0 CALLER PUSH20 0xFFFFFFFFFFFFFFFFFFFFFFFFFFFFFFFFFFFFFFFF AND SELFBALANCE PUSH1 0x40 MLOAD PUSH2 0x40B SWAP1 PUSH2 0x925 JUMP JUMPDEST PUSH0 PUSH1 0x40 MLOAD DUP1 DUP4 SUB DUP2 DUP6 DUP8 GAS CALL SWAP3 POP POP POP RETURNDATASIZE DUP1 PUSH0 DUP2 EQ PUSH2 0x445 JUMPI PUSH1 0x40 MLOAD SWAP2 POP PUSH1 0x1F NOT PUSH1 0x3F RETURNDATASIZE ADD AND DUP3 ADD PUSH1 0x40 MSTORE RETURNDATASIZE DUP3 MSTORE RETURNDATASIZE PUSH0 PUSH1 0x20 DUP5 ADD RETURNDATACOPY PUSH2 0x44A JUMP JUMPDEST PUSH1 0x60 SWAP2 POP JUMPDEST POP POP SWAP1 POP DUP1 PUSH2 0x48E JUMPI PUSH1 0x40 MLOAD PUSH32 0x8C379A000000000000000000000000000000000000000000000000000000000 DUP2 MSTORE PUSH1 0x4 ADD PUSH2 0x485 SWAP1 PUSH2 0x983 JUMP JUMPDEST PUSH1 0x40 MLOAD DUP1 SWAP2 SUB SWAP1 REVERT JUMPDEST POP JUMP JUMPDEST PUSH8 0x4563918244F40000 DUP2 JUMP JUMPDEST PUSH32 0x0 DUP2 JUMP JUMPDEST PUSH1 0x1 PUSH1 0x20 MSTORE DUP1 PUSH0 MSTORE PUSH1 0x40 PUSH0 KECCAK256 PUSH0 SWAP2 POP SWAP1 POP SLOAD DUP2 JUMP JUMPDEST PUSH0 DUP2 DUP2 SLOAD DUP2 LT PUSH2 0x4E4 JUMPI PUSH0 DUP1 REVERT JUMPDEST SWAP1 PUSH0 MSTORE PUSH1 0x20 PUSH0 KECCAK256 ADD PUSH0 SWAP2 POP SLOAD SWAP1 PUSH2 0x100 EXP SWAP1 DIV PUSH20 0xFFFFFFFFFFFFFFFFFFFFFFFFFFFFFFFFFFFFFFFF AND DUP2 JUMP JUMPDEST PUSH0 PUSH0 PUSH2 0x51A PUSH2 0x548 JUMP JUMPDEST SWAP1 POP PUSH0 PUSH8 0xDE0B6B3A7640000 DUP5 DUP4 PUSH2 0x532 SWAP2 SWAP1 PUSH2 0x9A1 JUMP JUMPDEST PUSH2 0x53C SWAP2 SWAP1 PUSH2 0xA0F JUMP JUMPDEST SWAP1 POP DUP1 SWAP3 POP POP POP SWAP2 SWAP1 POP JUMP JUMPDEST PUSH0 PUSH0 PUSH20 0x694AA1769357215DE4FAC081BF1F309ADC325306 SWAP1 POP PUSH0 DUP2 PUSH20 0xFFFFFFFFFFFFFFFFFFFFFFFFFFFFFFFFFFFFFFFF AND PUSH4 0xFEAF968C PUSH1 0x40 MLOAD DUP2 PUSH4 0xFFFFFFFF AND PUSH1 0xE0 SHL DUP2 MSTORE PUSH1 0x4 ADD PUSH1 0xA0 PUSH1 0x40 MLOAD DUP1 DUP4 SUB DUP2 DUP7 GAS STATICCALL ISZERO DUP1 ISZERO PUSH2 0x5AB JUMPI RETURNDATASIZE PUSH0 PUSH0 RETURNDATACOPY RETURNDATASIZE PUSH0 REVERT JUMPDEST POP POP POP POP PUSH1 0x40 MLOAD RETURNDATASIZE PUSH1 0x1F NOT PUSH1 0x1F DUP3 ADD AND DUP3 ADD DUP1 PUSH1 0x40 MSTORE POP DUP2 ADD SWAP1 PUSH2 0x5CF SWAP2 SWAP1 PUSH2 0xAC5 JUMP JUMPDEST POP POP POP SWAP2 POP POP PUSH5 0x2540BE400 DUP2 PUSH2 0x5E6 SWAP2 SWAP1 PUSH2 0xB3C JUMP JUMPDEST SWAP3 POP POP POP SWAP1 JUMP JUMPDEST DUP3 DUP1 SLOAD DUP3 DUP3 SSTORE SWAP1 PUSH0 MSTORE PUSH1 0x20 PUSH0 KECCAK256 SWAP1 DUP2 ADD SWAP3 DUP3 ISZERO PUSH2 0x663 JUMPI SWAP2 PUSH1 0x20 MUL DUP3 ADD JUMPDEST DUP3 DUP2 GT ISZERO PUSH2 0x662 JUMPI DUP3 MLOAD DUP3 PUSH0 PUSH2 0x100 EXP DUP2 SLOAD DUP2 PUSH20 0xFFFFFFFFFFFFFFFFFFFFFFFFFFFFFFFFFFFFFFFF MUL NOT AND SWAP1 DUP4 PUSH20 0xFFFFFFFFFFFFFFFFFFFFFFFFFFFFFFFFFFFFFFFF AND MUL OR SWAP1 SSTORE POP SWAP2 PUSH1 0x20 ADD SWAP2 SWAP1 PUSH1 0x1 ADD SWAP1 PUSH2 0x60B JUMP JUMPDEST JUMPDEST POP SWAP1 POP PUSH2 0x670 SWAP2 SWAP1 PUSH2 0x674 JUMP JUMPDEST POP SWAP1 JUMP JUMPDEST JUMPDEST DUP1 DUP3 GT ISZERO PUSH2 0x68B JUMPI PUSH0 DUP2 PUSH0 SWAP1 SSTORE POP PUSH1 0x1 ADD PUSH2 0x675 JUMP JUMPDEST POP SWAP1 JUMP JUMPDEST PUSH0 DUP2 SWAP1 POP SWAP2 SWAP1 POP JUMP JUMPDEST PUSH2 0x6A1 DUP2 PUSH2 0x68F JUMP JUMPDEST DUP3 MSTORE POP POP JUMP JUMPDEST PUSH0 PUSH1 0x20 DUP3 ADD SWAP1 POP PUSH2 0x6BA PUSH0 DUP4 ADD DUP5 PUSH2 0x698 JUMP JUMPDEST SWAP3 SWAP2 POP POP JUMP JUMPDEST PUSH0 PUSH20 0xFFFFFFFFFFFFFFFFFFFFFFFFFFFFFFFFFFFFFFFF DUP3 AND SWAP1 POP SWAP2 SWAP1 POP JUMP JUMPDEST PUSH0 PUSH2 0x6E9 DUP3 PUSH2 0x6C0 JUMP JUMPDEST SWAP1 POP SWAP2 SWAP1 POP JUMP JUMPDEST PUSH2 0x6F9 DUP2 PUSH2 0x6DF JUMP JUMPDEST DUP3 MSTORE POP POP JUMP JUMPDEST PUSH0 PUSH1 0x20 DUP3 ADD SWAP1 POP PUSH2 0x712 PUSH0 DUP4 ADD DUP5 PUSH2 0x6F0 JUMP JUMPDEST SWAP3 SWAP2 POP POP JUMP JUMPDEST PUSH0 PUSH0 REVERT JUMPDEST PUSH2 0x725 DUP2 PUSH2 0x6DF JUMP JUMPDEST DUP2 EQ PUSH2 0x72F JUMPI PUSH0 PUSH0 REVERT JUMPDEST POP JUMP JUMPDEST PUSH0 DUP2 CALLDATALOAD SWAP1 POP PUSH2 0x740 DUP2 PUSH2 0x71C JUMP JUMPDEST SWAP3 SWAP2 POP POP JUMP JUMPDEST PUSH0 PUSH1 0x20 DUP3 DUP5 SUB SLT ISZERO PUSH2 0x75B JUMPI PUSH2 0x75A PUSH2 0x718 JUMP JUMPDEST JUMPDEST PUSH0 PUSH2 0x768 DUP5 DUP3 DUP6 ADD PUSH2 0x732 JUMP JUMPDEST SWAP2 POP POP SWAP3 SWAP2 POP POP JUMP JUMPDEST PUSH2 0x77A DUP2 PUSH2 0x68F JUMP JUMPDEST DUP2 EQ PUSH2 0x784 JUMPI PUSH0 PUSH0 REVERT JUMPDEST POP JUMP JUMPDEST PUSH0 DUP2 CALLDATALOAD SWAP1 POP PUSH2 0x795 DUP2 PUSH2 0x771 JUMP JUMPDEST SWAP3 SWAP2 POP POP JUMP JUMPDEST PUSH0 PUSH1 0x20 DUP3 DUP5 SUB SLT ISZERO PUSH2 0x7B0 JUMPI PUSH2 0x7AF PUSH2 0x718 JUMP JUMPDEST JUMPDEST PUSH0 PUSH2 0x7BD DUP5 DUP3 DUP6 ADD PUSH2 0x787 JUMP JUMPDEST SWAP2 POP POP SWAP3 SWAP2 POP POP JUMP JUMPDEST PUSH0 DUP3 DUP3 MSTORE PUSH1 0x20 DUP3 ADD SWAP1 POP SWAP3 SWAP2 POP POP JUMP JUMPDEST PUSH32 0x4E6F7420456E6F7567682046756E647300000000000000000000000000000000 PUSH0 DUP3 ADD MSTORE POP JUMP JUMPDEST PUSH0 PUSH2 0x80A PUSH1 0x10 DUP4 PUSH2 0x7C6 JUMP JUMPDEST SWAP2 POP PUSH2 0x815 DUP3 PUSH2 0x7D6 JUMP JUMPDEST PUSH1 0x20 DUP3 ADD SWAP1 POP SWAP2 SWAP1 POP JUMP JUMPDEST PUSH0 PUSH1 0x20 DUP3 ADD SWAP1 POP DUP2 DUP2 SUB PUSH0 DUP4 ADD MSTORE PUSH2 0x837 DUP2 PUSH2 0x7FE JUMP JUMPDEST SWAP1 POP SWAP2 SWAP1 POP JUMP JUMPDEST PUSH32 0x4E487B7100000000000000000000000000000000000000000000000000000000 PUSH0 MSTORE PUSH1 0x11 PUSH1 0x4 MSTORE PUSH1 0x24 PUSH0 REVERT JUMPDEST PUSH0 PUSH2 0x875 DUP3 PUSH2 0x68F JUMP JUMPDEST SWAP2 POP PUSH2 0x880 DUP4 PUSH2 0x68F JUMP JUMPDEST SWAP3 POP DUP3 DUP3 ADD SWAP1 POP DUP1 DUP3 GT ISZERO PUSH2 0x898 JUMPI PUSH2 0x897 PUSH2 0x83E JUMP JUMPDEST JUMPDEST SWAP3 SWAP2 POP POP JUMP JUMPDEST PUSH32 0x4E487B7100000000000000000000000000000000000000000000000000000000 PUSH0 MSTORE PUSH1 0x32 PUSH1 0x4 MSTORE PUSH1 0x24 PUSH0 REVERT JUMPDEST PUSH32 0x4E487B7100000000000000000000000000000000000000000000000000000000 PUSH0 MSTORE PUSH1 0x41 PUSH1 0x4 MSTORE PUSH1 0x24 PUSH0 REVERT JUMPDEST PUSH0 DUP2 SWAP1 POP SWAP3 SWAP2 POP POP JUMP JUMPDEST POP JUMP JUMPDEST PUSH0 PUSH2 0x910 PUSH0 DUP4 PUSH2 0x8F8 JUMP JUMPDEST SWAP2 POP PUSH2 0x91B DUP3 PUSH2 0x902 JUMP JUMPDEST PUSH0 DUP3 ADD SWAP1 POP SWAP2 SWAP1 POP JUMP JUMPDEST PUSH0 PUSH2 0x92F DUP3 PUSH2 0x905 JUMP JUMPDEST SWAP2 POP DUP2 SWAP1 POP SWAP2 SWAP1 POP JUMP JUMPDEST PUSH32 0x63616C6C204661696C6564000000000000000000000000000000000000000000 PUSH0 DUP3 ADD MSTORE POP JUMP JUMPDEST PUSH0 PUSH2 0x96D PUSH1 0xB DUP4 PUSH2 0x7C6 JUMP JUMPDEST SWAP2 POP PUSH2 0x978 DUP3 PUSH2 0x939 JUMP JUMPDEST PUSH1 0x20 DUP3 ADD SWAP1 POP SWAP2 SWAP1 POP JUMP JUMPDEST PUSH0 PUSH1 0x20 DUP3 ADD SWAP1 POP DUP2 DUP2 SUB PUSH0 DUP4 ADD MSTORE PUSH2 0x99A DUP2 PUSH2 0x961 JUMP JUMPDEST SWAP1 POP SWAP2 SWAP1 POP JUMP JUMPDEST PUSH0 PUSH2 0x9AB DUP3 PUSH2 0x68F JUMP JUMPDEST SWAP2 POP PUSH2 0x9B6 DUP4 PUSH2 0x68F JUMP JUMPDEST SWAP3 POP DUP3 DUP3 MUL PUSH2 0x9C4 DUP2 PUSH2 0x68F JUMP JUMPDEST SWAP2 POP DUP3 DUP3 DIV DUP5 EQ DUP4 ISZERO OR PUSH2 0x9DB JUMPI PUSH2 0x9DA PUSH2 0x83E JUMP JUMPDEST JUMPDEST POP SWAP3 SWAP2 POP POP JUMP JUMPDEST PUSH32 0x4E487B7100000000000000000000000000000000000000000000000000000000 PUSH0 MSTORE PUSH1 0x12 PUSH1 0x4 MSTORE PUSH1 0x24 PUSH0 REVERT JUMPDEST PUSH0 PUSH2 0xA19 DUP3 PUSH2 0x68F JUMP JUMPDEST SWAP2 POP PUSH2 0xA24 DUP4 PUSH2 0x68F JUMP JUMPDEST SWAP3 POP DUP3 PUSH2 0xA34 JUMPI PUSH2 0xA33 PUSH2 0x9E2 JUMP JUMPDEST JUMPDEST DUP3 DUP3 DIV SWAP1 POP SWAP3 SWAP2 POP POP JUMP JUMPDEST PUSH0 PUSH10 0xFFFFFFFFFFFFFFFFFFFF DUP3 AND SWAP1 POP SWAP2 SWAP1 POP JUMP JUMPDEST PUSH2 0xA5D DUP2 PUSH2 0xA3F JUMP JUMPDEST DUP2 EQ PUSH2 0xA67 JUMPI PUSH0 PUSH0 REVERT JUMPDEST POP JUMP JUMPDEST PUSH0 DUP2 MLOAD SWAP1 POP PUSH2 0xA78 DUP2 PUSH2 0xA54 JUMP JUMPDEST SWAP3 SWAP2 POP POP JUMP JUMPDEST PUSH0 DUP2 SWAP1 POP SWAP2 SWAP1 POP JUMP JUMPDEST PUSH2 0xA90 DUP2 PUSH2 0xA7E JUMP JUMPDEST DUP2 EQ PUSH2 0xA9A JUMPI PUSH0 PUSH0 REVERT JUMPDEST POP JUMP JUMPDEST PUSH0 DUP2 MLOAD SWAP1 POP PUSH2 0xAAB DUP2 PUSH2 0xA87 JUMP JUMPDEST SWAP3 SWAP2 POP POP JUMP JUMPDEST PUSH0 DUP2 MLOAD SWAP1 POP PUSH2 0xABF DUP2 PUSH2 0x771 JUMP JUMPDEST SWAP3 SWAP2 POP POP JUMP JUMPDEST PUSH0 PUSH0 PUSH0 PUSH0 PUSH0 PUSH1 0xA0 DUP7 DUP9 SUB SLT ISZERO PUSH2 0xADE JUMPI PUSH2 0xADD PUSH2 0x718 JUMP JUMPDEST JUMPDEST PUSH0 PUSH2 0xAEB DUP9 DUP3 DUP10 ADD PUSH2 0xA6A JUMP JUMPDEST SWAP6 POP POP PUSH1 0x20 PUSH2 0xAFC DUP9 DUP3 DUP10 ADD PUSH2 0xA9D JUMP JUMPDEST SWAP5 POP POP PUSH1 0x40 PUSH2 0xB0D DUP9 DUP3 DUP10 ADD PUSH2 0xAB1 JUMP JUMPDEST SWAP4 POP POP PUSH1 0x60 PUSH2 0xB1E DUP9 DUP3 DUP10 ADD PUSH2 0xAB1 JUMP JUMPDEST SWAP3 POP POP PUSH1 0x80 PUSH2 0xB2F DUP9 DUP3 DUP10 ADD PUSH2 0xA6A JUMP JUMPDEST SWAP2 POP POP SWAP3 SWAP6 POP SWAP3 SWAP6 SWAP1 SWAP4 POP JUMP JUMPDEST PUSH0 PUSH2 0xB46 DUP3 PUSH2 0xA7E JUMP JUMPDEST SWAP2 POP PUSH2 0xB51 DUP4 PUSH2 0xA7E JUMP JUMPDEST SWAP3 POP DUP3 DUP3 MUL PUSH2 0xB5F DUP2 PUSH2 0xA7E JUMP JUMPDEST SWAP2 POP PUSH32 0x8000000000000000000000000000000000000000000000000000000000000000 DUP5 EQ PUSH0 DUP5 SLT AND ISZERO PUSH2 0xB96 JUMPI PUSH2 0xB95 PUSH2 0x83E JUMP JUMPDEST JUMPDEST DUP3 DUP3 SDIV DUP5 EQ DUP4 ISZERO OR PUSH2 0xBAB JUMPI PUSH2 0xBAA PUSH2 0x83E JUMP JUMPDEST JUMPDEST POP SWAP3 SWAP2 POP POP JUMP INVALID LOG2 PUSH5 0x6970667358 0x22 SLT KECCAK256 PUSH13 0xA94928309E499C761FED259B59 PUSH26 0xA2B401123E330C1E8766CFAEB2E74BA87464736F6C634300081E STOP CALLER "
				},
				"gasEstimates": {
					"creation": {
						"codeDepositCost": "609600",
						"executionCost": "infinite",
						"totalCost": "infinite"
					},
					"external": {
						"": "infinite",
						"addresstoAmountFunded(address)": "2868",
						"fund()": "infinite",
						"funders(uint256)": "5031",
						"minUsd()": "325",
						"owner()": "infinite",
						"withdraw()": "infinite"
					}
				},
				"methodIdentifiers": {
					"addresstoAmountFunded(address)": "db9bae19",
					"fund()": "b60d4288",
					"funders(uint256)": "dc0d3dff",
					"minUsd()": "51b80e41",
					"owner()": "8da5cb5b",
					"withdraw()": "3ccfd60b"
				}
			},
			"storageLayout": {
				"storage": [
					{
						"astId": 60,
						"contract": "FundeMe.sol:FundMe",
						"label": "funders",
						"offset": 0,
						"slot": "0",
						"type": "t_array(t_address)dyn_storage"
					},
					{
						"astId": 64,
						"contract": "FundeMe.sol:FundMe",
						"label": "addresstoAmountFunded",
						"offset": 0,
						"slot": "1",
						"type": "t_mapping(t_address,t_uint256)"
					}
				],
				"types": {
					"t_address": {
						"encoding": "inplace",
						"label": "address",
						"numberOfBytes": "20"
					},
					"t_array(t_address)dyn_storage": {
						"base": "t_address",
						"encoding": "dynamic_array",
						"label": "address[]",
						"numberOfBytes": "32"
					},
					"t_mapping(t_address,t_uint256)": {
						"encoding": "mapping",
						"key": "t_address",
						"label": "mapping(address => uint256)",
						"numberOfBytes": "32",
						"value": "t_uint256"
					},
					"t_uint256": {
						"encoding": "inplace",
						"label": "uint256",
						"numberOfBytes": "32"
					}
				}
			},
			"userdoc": {
				"kind": "user",
				"methods": {},
				"version": 1
			}
		}
	}
}